{
  "_format": "hh-sol-artifact-1",
  "contractName": "Util",
  "sourceName": "contracts/locker/Util.sol",
  "abi": [
    {
      "inputs": [
        {
          "internalType": "address",
          "name": "address_",
          "type": "address"
        }
      ],
      "name": "getLpData",
      "outputs": [
        {
          "internalType": "address",
          "name": "token0",
          "type": "address"
        },
        {
          "internalType": "address",
          "name": "token1",
          "type": "address"
        },
        {
          "internalType": "uint256",
          "name": "balance0",
          "type": "uint256"
        },
        {
          "internalType": "uint256",
          "name": "balance1",
          "type": "uint256"
        },
        {
          "internalType": "uint256",
          "name": "price0",
          "type": "uint256"
        },
        {
          "internalType": "uint256",
          "name": "price1",
          "type": "uint256"
        }
      ],
      "stateMutability": "view",
      "type": "function"
    },
    {
      "inputs": [
        {
          "internalType": "address",
          "name": "address_",
          "type": "address"
        }
      ],
      "name": "getTokenData",
      "outputs": [
        {
          "internalType": "string",
          "name": "name",
          "type": "string"
        },
        {
          "internalType": "string",
          "name": "symbol",
          "type": "string"
        },
        {
          "internalType": "uint8",
          "name": "decimals",
          "type": "uint8"
        },
        {
          "internalType": "uint256",
          "name": "totalSupply",
          "type": "uint256"
        },
        {
          "internalType": "uint256",
          "name": "balance",
          "type": "uint256"
        }
      ],
      "stateMutability": "view",
      "type": "function"
    },
    {
      "inputs": [
        {
          "internalType": "address",
          "name": "address_",
          "type": "address"
        }
      ],
      "name": "isLpToken",
      "outputs": [
        {
          "internalType": "bool",
          "name": "",
          "type": "bool"
        }
      ],
      "stateMutability": "view",
      "type": "function"
    }
  ],
  "bytecode": "0x6080806040523461001a576107a69081610020823930815050f35b600080fdfe6040608081526004908136101561001557600080fd5b600091823560e01c80630f24ca7d146104e057806313ff7e9f146102ab57632590dc9d1461004257600080fd5b602091826003193601126102a75781356001600160a01b0381811692918390036102a3578151630dfe168160e01b81529185838681875afa92831561029957879361027a575b50805163d21220a760e01b81529286848781885afa93841561027057889461023f575b508216958151926370a0823160e01b94858552868886015282856024818c5afa9485156101d7578a95610210575b501690825194855285878601528085602481855afa94851561019a5789956101e1575b508251635909c0d560e01b81529581878981845afa9687156101d7578a976101a4575b508190845198898092635a3d549360e01b82525afa96871561019a578997610163575b5060c0985082519788528701528501526060840152608083015260a0820152f35b9080975081813d8311610193575b61017b8183610560565b8101031261018f5760c09850519538610142565b8880fd5b503d610171565b83513d8b823e3d90fd5b9096508181813d83116101d0575b6101bc8183610560565b810103126101cc5751958161011f565b8980fd5b503d6101b2565b84513d8c823e3d90fd5b9080955081813d8311610209575b6101f98183610560565b8101031261018f575193386100fc565b503d6101ef565b9094508281813d8311610238575b6102288183610560565b810103126101cc575193386100d9565b503d61021e565b8391945061026290883d8a11610269575b61025a8183610560565b810190610598565b93906100ab565b503d610250565b82513d8a823e3d90fd5b610292919350863d88116102695761025a8183610560565b9138610088565b81513d89823e3d90fd5b8580fd5b8380fd5b50602092836003193601126103f35781356001600160a01b03811692908390036104dc5783516306fdde0360e01b81529382858381875afa9485156104d25783956104b6575b5080516395d89b4160e01b815283818481885afa9081156104ac57849161048a575b50815163313ce56760e01b81529487868581845afa958615610480578596610443575b5082516318160ddd60e01b81529388858281855afa948515610439579089918796610408575b5060248551809481936370a0823160e01b835233908301525afa9485156103fd5780956103c4575b50506103b06103a39760ff928451998a9960a08b5260a08b019061053b565b91898303908a015261053b565b941690850152606084015260808301520390f35b909194508782813d83116103f6575b6103dd8183610560565b810103126103f3575051926103b06103a3610384565b80fd5b503d6103d3565b8351903d90823e3d90fd5b8281939297503d8311610432575b6104208183610560565b810103126102a357889051943861035c565b503d610416565b84513d88823e3d90fd5b9095508781813d8311610479575b61045b8183610560565b81010312610475575160ff81168103610475579438610336565b8480fd5b503d610451565b83513d87823e3d90fd5b6104a691503d8086833e61049e8183610560565b810190610711565b38610313565b82513d86823e3d90fd5b6104cb9195503d8085833e61049e8183610560565b93386102f1565b81513d85823e3d90fd5b5080fd5b5060203660031901126105145735916001600160a01b03831683036103f3575061050b60209261064a565b90519015158152f35b8280fd5b60005b83811061052b5750506000910152565b818101518382015260200161051b565b9060209161055481518092818552858086019101610518565b601f01601f1916010190565b90601f8019910116810190811067ffffffffffffffff82111761058257604052565b634e487b7160e01b600052604160045260246000fd5b908160209103126105b757516001600160a01b03811681036105b75790565b600080fd5b600060443d1061061a57604051600319913d83016004833e815167ffffffffffffffff918282113d60248401111761061d57818401948551938411610625573d8501016020848701011161061d575061061a92910160200190610560565b90565b949350505050565b50949350505050565b67ffffffffffffffff811161058257601f01601f191660200190565b604051630dfe168160e01b81526001600160a01b03916020908290600490829086165afa600091816106f0575b506106ea575050600060033d116106d8575b6308c379a0146106c6575b3d156106c1573d6106a48161062e565b906106b26040519283610560565b8152600060203d92013e600090565b600090565b6106ce6105bc565b1561069457600090565b5060046000803e60005160e01c610689565b16151590565b61070a91925060203d6020116102695761025a8183610560565b9038610677565b6020818303126105b75780519067ffffffffffffffff82116105b7570181601f820112156105b75780516107448161062e565b926107526040519485610560565b818452602082840101116105b75761061a916020808501910161051856fea26469706673582212200d33d7018ca69fca846d1768f1ba27462658e808889e880eeb538f685882cf8664736f6c63430008180033",
  "linkReferences": {},
  "deployedLinkReferences": {}
}