{"contracts/locker/TokenLockerV1.sol":{"TokenLockerV1":{"abi":[{"inputs":[{"internalType":"address","name":"manager_","type":"address"},{"internalType":"uint40","name":"id_","type":"uint40"},{"internalType":"address","name":"owner_","type":"address"},{"internalType":"address","name":"tokenAddress_","type":"address"},{"internalType":"uint40","name":"unlockTime_","type":"uint40"}],"stateMutability":"nonpayable","type":"constructor"},{"anonymous":false,"inputs":[{"indexed":false,"internalType":"uint256","name":"amount","type":"uint256"}],"name":"Deposited","type":"event"},{"anonymous":false,"inputs":[{"indexed":false,"internalType":"uint40","name":"newUnlockTime","type":"uint40"}],"name":"Extended","type":"event"},{"anonymous":false,"inputs":[{"indexed":true,"internalType":"address","name":"oldOwner","type":"address"},{"indexed":true,"internalType":"address","name":"newOwner","type":"address"}],"name":"OwnershipTransferred","type":"event"},{"anonymous":false,"inputs":[],"name":"Withdrew","type":"event"},{"inputs":[{"internalType":"uint256","name":"amount_","type":"uint256"},{"internalType":"uint40","name":"newUnlockTime_","type":"uint40"}],"name":"deposit","outputs":[],"stateMutability":"nonpayable","type":"function"},{"inputs":[],"name":"getIsLpToken","outputs":[{"internalType":"bool","name":"","type":"bool"}],"stateMutability":"view","type":"function"},{"inputs":[],"name":"getLockData","outputs":[{"internalType":"bool","name":"isLpToken","type":"bool"},{"internalType":"uint40","name":"id","type":"uint40"},{"internalType":"address","name":"contractAddress","type":"address"},{"internalType":"address","name":"lockOwner","type":"address"},{"internalType":"address","name":"token","type":"address"},{"internalType":"address","name":"createdBy","type":"address"},{"internalType":"uint40","name":"createdAt","type":"uint40"},{"internalType":"uint40","name":"blockTime","type":"uint40"},{"internalType":"uint40","name":"unlockTime","type":"uint40"},{"internalType":"uint256","name":"balance","type":"uint256"},{"internalType":"uint256","name":"totalSupply","type":"uint256"}],"stateMutability":"view","type":"function"},{"inputs":[],"name":"getLpData","outputs":[{"internalType":"bool","name":"hasLpData","type":"bool"},{"internalType":"uint40","name":"id","type":"uint40"},{"internalType":"address","name":"token0","type":"address"},{"internalType":"address","name":"token1","type":"address"},{"internalType":"uint256","name":"balance0","type":"uint256"},{"internalType":"uint256","name":"balance1","type":"uint256"},{"internalType":"uint256","name":"price0","type":"uint256"},{"internalType":"uint256","name":"price1","type":"uint256"}],"stateMutability":"view","type":"function"},{"inputs":[],"name":"owner","outputs":[{"internalType":"address","name":"","type":"address"}],"stateMutability":"view","type":"function"},{"inputs":[{"internalType":"address","name":"newOwner_","type":"address"}],"name":"transferOwnership","outputs":[],"stateMutability":"nonpayable","type":"function"},{"inputs":[],"name":"withdraw","outputs":[],"stateMutability":"nonpayable","type":"function"},{"inputs":[],"name":"withdrawEth","outputs":[],"stateMutability":"nonpayable","type":"function"},{"inputs":[{"internalType":"address","name":"address_","type":"address"}],"name":"withdrawToken","outputs":[],"stateMutability":"nonpayable","type":"function"},{"stateMutability":"payable","type":"receive"}],"evm":{"bytecode":{"linkReferences":{"contracts/locker/Util.sol":{"Util":[{"length":20,"start":332},{"length":20,"start":2070}]}},"object":"6080604090808252346200023f5760a081620010db803803809162000025828562000244565b8339810103126200023f576200003b816200027e565b906020916200004c83830162000293565b916200005a8582016200027e565b906200007760806200006f606084016200027e565b920162000293565b9160018060a01b038091169160018060a01b0319946000968487895416178855895185897f8be0079c531659141344cd1fd0a4f28419497f9722a3daafe3b4186f6b6457e08180a364ffffffffff871615620001f35750836001549164ffffffffff60a81b9060a81b169216906bffffffffffff0000000000ff60a01b16171760015516809360025416176002556003549164ffffffffff60c81b9060c81b169161ffff60f01b161764ffffffffff60a01b4260a01b161717600355835190630f24ca7d60e01b82526004820152828160248173__$07fad53c1fbb3fdc76e34aaffbb15a0e12$__5af4928315620001e9578293620001a0575b50506001805460ff60a01b191692151560a01b60ff60a01b16929092179091555051610e349081620002a78239f35b9080929350813d8311620001e1575b620001bb818362000244565b81010312620001dd5751908115158203620001da575038808062000171565b80fd5b5080fd5b503d620001af565b84513d84823e3d90fd5b62461bcd60e51b8152600481018a9052602160248201527f556e6c6f636b2074696d65206d75737420626520696e207468652066757475726044820152606560f81b6064820152608490fd5b600080fd5b601f909101601f19168101906001600160401b038211908210176200026857604052565b634e487b7160e01b600052604160045260246000fd5b51906001600160a01b03821682036200023f57565b519064ffffffffff821682036200023f5756fe60406080815260049081361015610020575b5050361561001e57600080fd5b005b600091823560e01c80633ccfd60b14610a555780634c02bf0b14610954578063894760691461079e5780638da5cb5b14610776578063a0ef91df146106f4578063af74e629146104cd578063b05fb26f146104a2578063d88e7f4e146102475763f2fde38b146100905750610011565b829134610243576020366003190112610243578135916001600160a01b03808416919082850361023f5785549280828516946100df3387146100d181610bbb565b6100da81610bbb565b610bbb565b6001600160a01b031916178755845190847f8be0079c531659141344cd1fd0a4f28419497f9722a3daafe3b4186f6b6457e08980a360015460ff8160a01c166000146101bf575050600154928184169160035416823b156101bb578551635c127f6160e01b815260a89590951c64ffffffffff169385019384526001600160a01b03968716602085015290861660408401529490941660608201529092849184919082908490829060800103925af19081156101b2575061019f57505080f35b6101a890610c96565b6101af5780f35b80fd5b513d84823e3d90fd5b8780fd5b60035491979596918316949281169390843b1561023b5763c4630a6760e01b895260a81c64ffffffffff169088019081526001600160a01b03918216602082015291811660408301529092166060830152849182908490829060800103925af19081156101b2575061022f575080f35b61023890610c96565b80f35b8680fd5b8580fd5b5050fd5b503461049e578160031936011261049e57803591602435918464ffffffffff948585169586860361049e5782546001600160a01b03969061028b9088163314610bbb565b60035461029e60ff8260f01c1615610c18565b600160f01b9160ff60f01b1999838b84161780600355816103a7575b505050505050806102d2575b50846003541660035580f35b60209060646102df610d85565b966002541691865194859384926323b872dd60e01b8452338985015230602485015260448401525af1801561039d5761036e575b5061031c610d85565b92830392831161035b57507f2a89b2e3d580398d6dc2db5e0f336b52602bbaa51afa9bb5cdf59239cf0d2bea9160209151908152a138808084816102c6565b634e487b7160e01b855260119052602484fd5b61038f9060203d602011610396575b6103878183610cc0565b810190610ce2565b5038610313565b503d61037d565b83513d88823e3d90fd5b8596975060c89591929394951c168110159081610491575b50156104285765ffffffffffff60c81b1990911660c891821b64ffffffffff60c81b161790911760038190558551911c90911681528691907fd316ae9629b69e6caec00227e7056a9d6b297beb56bf61e651212156c716567e90602090a13880808080806102ba565b865162461bcd60e51b8152602081880152603f60248201527f4e657720756e6c6f636b2074696d65206d75737420626520612066757475726560448201527f2074696d65206265796f6e64207468652070726576696f75732076616c7565006064820152608490fd5b90508442161115386103bf565b8280fd5b5050346104c957816003193601126104c95760209060ff60015460a01c1690519015158152f35b5080fd5b50903461049e578260031936011261049e57829083849085908692879488966001549860ff8a60a01c161560001461054857505064ffffffffff61010099985b82519915158a5260a81c1660208901526001600160a01b0392831690880152166060860152608085015260a084015260c083015260e0820152f35b90989960018060a01b0360025416835190632590dc9d60e01b82528382015260c08160248173__$07fad53c1fbb3fdc76e34aaffbb15a0e12$__5af482918384908591848794889661068d575b506106655750505050505060018160033d11610656575b6308c379a01461063f575b6105cd575b505064ffffffffff6101009961050d565b909998503d1561062e573d67ffffffffffffffff811161061b5782516101009b5064ffffffffff929161060a601f8201601f191660200183610cc0565b81528160203d92013e5b98996105bc565b634e487b7160e01b825260418b52602482fd5b610100995064ffffffffff90610614565b610647610d13565b156105b75750985088806105b7565b508282803e815160e01c6105ac565b985098509850985098509950505061010098965064ffffffffff60019893929495969761050d565b965094505050505060c0823d60c0116106ec575b816106ae60c09383610cc0565b8101031261049e576106bf82610cff565b6106cb60208401610cff565b9286810151606082015160a060808401519301519395919092939438610595565b3d91506106a1565b5050346104c957816003193601126104c95781546001600160a01b03169061071d338314610bbb565b828080806003549561073560ff8860f01c1615610c18565b60ff60f01b19968716600160f01b17600355479082821561076d575bf11561076257506003541660035580f35b51913d9150823e3d90fd5b506108fc610751565b5050346104c957816003193601126104c957905490516001600160a01b039091168152602090f35b50903461049e5760209081600319360112610950576001600160a01b039280358481169081900361023f57848654166107d8338214610bbb565b600354956107ec60ff8860f01c1615610c18565b60ff60f01b19968716600160f01b176003556002541682146108f15783516370a0823160e01b81523081850152879493909291908684602481865afa9384156108e75790879493929187946108b2575b50855163a9059cbb60e01b81526001600160a01b03909216908201908152602081019390935294859283919082906040015b03925af19081156108a9575061088b575b50506003541660035580f35b816108a192903d10610396576103878183610cc0565b50388061087f565b513d86823e3d90fd5b8581969295503d83116108e0575b6108ca8183610cc0565b8101031261023f5792518693909261086e61083c565b503d6108c0565b85513d88823e3d90fd5b835162461bcd60e51b8152808401869052603360248201527f557365202777697468647261772720746f2077697468647261772074686520706044820152723934b6b0b93c903637b1b5b2b2103a37b5b2b760691b6064820152608490fd5b8380fd5b503461049e578260031936011261049e576001549164ffffffffff60018060a01b03808654169080600254166003549261098c610d85565b956020815180996318160ddd60e01b825281865afa978815610a4b578a98610a0e575b5061016099508581519960ff8160a01c1615158b5260a81c1660208a0152309089015260608801526080870152811660a0860152818160a01c1660c086015281421660e086015260c81c16610100840152610120830152610140820152f35b9097506020813d602011610a43575b81610a2a60209383610cc0565b81010312610a3f5761016099505196386109af565b8980fd5b3d9150610a1d565b81513d8c823e3d90fd5b50903461049e578260031936011261049e5782546001600160a01b0392908316610a80338214610bbb565b60035493610a9460ff8660f01c1615610c18565b60ff60f01b19948516600160f01b17600381905560c81c64ffffffffff9081164290911610610b6d5791602091610b059493600254169087610ad4610d85565b865163a9059cbb60e01b81526001600160a01b03909316948301948552602085015290958693849291839160400190565b03925af1908115610b645750610b45575b507f2610969932116214bd675dc19941eeba897ba78afe8423eaaa3046445eea28cd8280a16003541660035580f35b610b5d9060203d602011610396576103878183610cc0565b5038610b16565b513d85823e3d90fd5b835162461bcd60e51b8152602081850152602260248201527f5761697420756e74696c20756e6c6f636b54696d6520746f207769746864726160448201526103b960f51b6064820152608490fd5b15610bc257565b60405162461bcd60e51b815260206004820152602860248201527f4f6e6c7920746865206f776e65722063616e2065786563757465207468697320604482015267333ab731ba34b7b760c11b6064820152608490fd5b15610c1f57565b60a460405162461bcd60e51b815260206004820152604460248201527f5472616e73666572696e67206973206c6f636b65642e205761697420666f722060448201527f7468652070726576696f7573207472616e73616374696f6e20746f20636f6d706064820152636c65746560e01b6084820152fd5b67ffffffffffffffff8111610caa57604052565b634e487b7160e01b600052604160045260246000fd5b90601f8019910116810190811067ffffffffffffffff821117610caa57604052565b90816020910312610cfa57518015158103610cfa5790565b600080fd5b51906001600160a01b0382168203610cfa57565b600060443d10610d7157604051600319913d83016004833e815167ffffffffffffffff918282113d602484011117610d7457818401948551938411610d7c573d85010160208487010111610d745750610d7192910160200190610cc0565b90565b949350505050565b50949350505050565b6002546040516370a0823160e01b815230600482015290602090829060249082906001600160a01b03165afa908115610df257600091610dc3575090565b90506020813d602011610dea575b81610dde60209383610cc0565b81010312610cfa575190565b3d9150610dd1565b6040513d6000823e3d90fdfea2646970667358221220b2829b023369f84f8e8bad328d085859cecaf9278f49da73596e5ce57532607a64736f6c63430008180033","opcodes":"PUSH1 0x80 PUSH1 0x40 SWAP1 DUP1 DUP3 MSTORE CALLVALUE PUSH3 0x23F JUMPI PUSH1 0xA0 DUP2 PUSH3 0x10DB DUP1 CODESIZE SUB DUP1 SWAP2 PUSH3 0x25 DUP3 DUP6 PUSH3 0x244 JUMP JUMPDEST DUP4 CODECOPY DUP2 ADD SUB SLT PUSH3 0x23F JUMPI PUSH3 0x3B DUP2 PUSH3 0x27E JUMP JUMPDEST SWAP1 PUSH1 0x20 SWAP2 PUSH3 0x4C DUP4 DUP4 ADD PUSH3 0x293 JUMP JUMPDEST SWAP2 PUSH3 0x5A DUP6 DUP3 ADD PUSH3 0x27E JUMP JUMPDEST SWAP1 PUSH3 0x77 PUSH1 0x80 PUSH3 0x6F PUSH1 0x60 DUP5 ADD PUSH3 0x27E JUMP JUMPDEST SWAP3 ADD PUSH3 0x293 JUMP JUMPDEST SWAP2 PUSH1 0x1 DUP1 PUSH1 0xA0 SHL SUB DUP1 SWAP2 AND SWAP2 PUSH1 0x1 DUP1 PUSH1 0xA0 SHL SUB NOT SWAP5 PUSH1 0x0 SWAP7 DUP5 DUP8 DUP10 SLOAD AND OR DUP9 SSTORE DUP10 MLOAD DUP6 DUP10 PUSH32 0x8BE0079C531659141344CD1FD0A4F28419497F9722A3DAAFE3B4186F6B6457E0 DUP2 DUP1 LOG3 PUSH5 0xFFFFFFFFFF DUP8 AND ISZERO PUSH3 0x1F3 JUMPI POP DUP4 PUSH1 0x1 SLOAD SWAP2 PUSH5 0xFFFFFFFFFF PUSH1 0xA8 SHL SWAP1 PUSH1 0xA8 SHL AND SWAP3 AND SWAP1 PUSH12 0xFFFFFFFFFFFF0000000000FF PUSH1 0xA0 SHL AND OR OR PUSH1 0x1 SSTORE AND DUP1 SWAP4 PUSH1 0x2 SLOAD AND OR PUSH1 0x2 SSTORE PUSH1 0x3 SLOAD SWAP2 PUSH5 0xFFFFFFFFFF PUSH1 0xC8 SHL SWAP1 PUSH1 0xC8 SHL AND SWAP2 PUSH2 0xFFFF PUSH1 0xF0 SHL AND OR PUSH5 0xFFFFFFFFFF PUSH1 0xA0 SHL TIMESTAMP PUSH1 0xA0 SHL AND OR OR PUSH1 0x3 SSTORE DUP4 MLOAD SWAP1 PUSH4 0xF24CA7D PUSH1 0xE0 SHL DUP3 MSTORE PUSH1 0x4 DUP3 ADD MSTORE DUP3 DUP2 PUSH1 0x24 DUP2 PUSH20 0x0 GAS DELEGATECALL SWAP3 DUP4 ISZERO PUSH3 0x1E9 JUMPI DUP3 SWAP4 PUSH3 0x1A0 JUMPI JUMPDEST POP POP PUSH1 0x1 DUP1 SLOAD PUSH1 0xFF PUSH1 0xA0 SHL NOT AND SWAP3 ISZERO ISZERO PUSH1 0xA0 SHL PUSH1 0xFF PUSH1 0xA0 SHL AND SWAP3 SWAP1 SWAP3 OR SWAP1 SWAP2 SSTORE POP MLOAD PUSH2 0xE34 SWAP1 DUP2 PUSH3 0x2A7 DUP3 CODECOPY RETURN JUMPDEST SWAP1 DUP1 SWAP3 SWAP4 POP DUP2 RETURNDATASIZE DUP4 GT PUSH3 0x1E1 JUMPI JUMPDEST PUSH3 0x1BB DUP2 DUP4 PUSH3 0x244 JUMP JUMPDEST DUP2 ADD SUB SLT PUSH3 0x1DD JUMPI MLOAD SWAP1 DUP2 ISZERO ISZERO DUP3 SUB PUSH3 0x1DA JUMPI POP CODESIZE DUP1 DUP1 PUSH3 0x171 JUMP JUMPDEST DUP1 REVERT JUMPDEST POP DUP1 REVERT JUMPDEST POP RETURNDATASIZE PUSH3 0x1AF JUMP JUMPDEST DUP5 MLOAD RETURNDATASIZE DUP5 DUP3 RETURNDATACOPY RETURNDATASIZE SWAP1 REVERT JUMPDEST PUSH3 0x461BCD PUSH1 0xE5 SHL DUP2 MSTORE PUSH1 0x4 DUP2 ADD DUP11 SWAP1 MSTORE PUSH1 0x21 PUSH1 0x24 DUP3 ADD MSTORE PUSH32 0x556E6C6F636B2074696D65206D75737420626520696E20746865206675747572 PUSH1 0x44 DUP3 ADD MSTORE PUSH1 0x65 PUSH1 0xF8 SHL PUSH1 0x64 DUP3 ADD MSTORE PUSH1 0x84 SWAP1 REVERT JUMPDEST PUSH1 0x0 DUP1 REVERT JUMPDEST PUSH1 0x1F SWAP1 SWAP2 ADD PUSH1 0x1F NOT AND DUP2 ADD SWAP1 PUSH1 0x1 PUSH1 0x1 PUSH1 0x40 SHL SUB DUP3 GT SWAP1 DUP3 LT OR PUSH3 0x268 JUMPI PUSH1 0x40 MSTORE JUMP JUMPDEST PUSH4 0x4E487B71 PUSH1 0xE0 SHL PUSH1 0x0 MSTORE PUSH1 0x41 PUSH1 0x4 MSTORE PUSH1 0x24 PUSH1 0x0 REVERT JUMPDEST MLOAD SWAP1 PUSH1 0x1 PUSH1 0x1 PUSH1 0xA0 SHL SUB DUP3 AND DUP3 SUB PUSH3 0x23F JUMPI JUMP JUMPDEST MLOAD SWAP1 PUSH5 0xFFFFFFFFFF DUP3 AND DUP3 SUB PUSH3 0x23F JUMPI JUMP INVALID PUSH1 0x40 PUSH1 0x80 DUP2 MSTORE PUSH1 0x4 SWAP1 DUP2 CALLDATASIZE LT ISZERO PUSH2 0x20 JUMPI JUMPDEST POP POP CALLDATASIZE ISZERO PUSH2 0x1E JUMPI PUSH1 0x0 DUP1 REVERT JUMPDEST STOP JUMPDEST PUSH1 0x0 SWAP2 DUP3 CALLDATALOAD PUSH1 0xE0 SHR DUP1 PUSH4 0x3CCFD60B EQ PUSH2 0xA55 JUMPI DUP1 PUSH4 0x4C02BF0B EQ PUSH2 0x954 JUMPI DUP1 PUSH4 0x89476069 EQ PUSH2 0x79E JUMPI DUP1 PUSH4 0x8DA5CB5B EQ PUSH2 0x776 JUMPI DUP1 PUSH4 0xA0EF91DF EQ PUSH2 0x6F4 JUMPI DUP1 PUSH4 0xAF74E629 EQ PUSH2 0x4CD JUMPI DUP1 PUSH4 0xB05FB26F EQ PUSH2 0x4A2 JUMPI DUP1 PUSH4 0xD88E7F4E EQ PUSH2 0x247 JUMPI PUSH4 0xF2FDE38B EQ PUSH2 0x90 JUMPI POP PUSH2 0x11 JUMP JUMPDEST DUP3 SWAP2 CALLVALUE PUSH2 0x243 JUMPI PUSH1 0x20 CALLDATASIZE PUSH1 0x3 NOT ADD SLT PUSH2 0x243 JUMPI DUP2 CALLDATALOAD SWAP2 PUSH1 0x1 PUSH1 0x1 PUSH1 0xA0 SHL SUB DUP1 DUP5 AND SWAP2 SWAP1 DUP3 DUP6 SUB PUSH2 0x23F JUMPI DUP6 SLOAD SWAP3 DUP1 DUP3 DUP6 AND SWAP5 PUSH2 0xDF CALLER DUP8 EQ PUSH2 0xD1 DUP2 PUSH2 0xBBB JUMP JUMPDEST PUSH2 0xDA DUP2 PUSH2 0xBBB JUMP JUMPDEST PUSH2 0xBBB JUMP JUMPDEST PUSH1 0x1 PUSH1 0x1 PUSH1 0xA0 SHL SUB NOT AND OR DUP8 SSTORE DUP5 MLOAD SWAP1 DUP5 PUSH32 0x8BE0079C531659141344CD1FD0A4F28419497F9722A3DAAFE3B4186F6B6457E0 DUP10 DUP1 LOG3 PUSH1 0x1 SLOAD PUSH1 0xFF DUP2 PUSH1 0xA0 SHR AND PUSH1 0x0 EQ PUSH2 0x1BF JUMPI POP POP PUSH1 0x1 SLOAD SWAP3 DUP2 DUP5 AND SWAP2 PUSH1 0x3 SLOAD AND DUP3 EXTCODESIZE ISZERO PUSH2 0x1BB JUMPI DUP6 MLOAD PUSH4 0x5C127F61 PUSH1 0xE0 SHL DUP2 MSTORE PUSH1 0xA8 SWAP6 SWAP1 SWAP6 SHR PUSH5 0xFFFFFFFFFF AND SWAP4 DUP6 ADD SWAP4 DUP5 MSTORE PUSH1 0x1 PUSH1 0x1 PUSH1 0xA0 SHL SUB SWAP7 DUP8 AND PUSH1 0x20 DUP6 ADD MSTORE SWAP1 DUP7 AND PUSH1 0x40 DUP5 ADD MSTORE SWAP5 SWAP1 SWAP5 AND PUSH1 0x60 DUP3 ADD MSTORE SWAP1 SWAP3 DUP5 SWAP2 DUP5 SWAP2 SWAP1 DUP3 SWAP1 DUP5 SWAP1 DUP3 SWAP1 PUSH1 0x80 ADD SUB SWAP3 GAS CALL SWAP1 DUP2 ISZERO PUSH2 0x1B2 JUMPI POP PUSH2 0x19F JUMPI POP POP DUP1 RETURN JUMPDEST PUSH2 0x1A8 SWAP1 PUSH2 0xC96 JUMP JUMPDEST PUSH2 0x1AF JUMPI DUP1 RETURN JUMPDEST DUP1 REVERT JUMPDEST MLOAD RETURNDATASIZE DUP5 DUP3 RETURNDATACOPY RETURNDATASIZE SWAP1 REVERT JUMPDEST DUP8 DUP1 REVERT JUMPDEST PUSH1 0x3 SLOAD SWAP2 SWAP8 SWAP6 SWAP7 SWAP2 DUP4 AND SWAP5 SWAP3 DUP2 AND SWAP4 SWAP1 DUP5 EXTCODESIZE ISZERO PUSH2 0x23B JUMPI PUSH4 0xC4630A67 PUSH1 0xE0 SHL DUP10 MSTORE PUSH1 0xA8 SHR PUSH5 0xFFFFFFFFFF AND SWAP1 DUP9 ADD SWAP1 DUP2 MSTORE PUSH1 0x1 PUSH1 0x1 PUSH1 0xA0 SHL SUB SWAP2 DUP3 AND PUSH1 0x20 DUP3 ADD MSTORE SWAP2 DUP2 AND PUSH1 0x40 DUP4 ADD MSTORE SWAP1 SWAP3 AND PUSH1 0x60 DUP4 ADD MSTORE DUP5 SWAP2 DUP3 SWAP1 DUP5 SWAP1 DUP3 SWAP1 PUSH1 0x80 ADD SUB SWAP3 GAS CALL SWAP1 DUP2 ISZERO PUSH2 0x1B2 JUMPI POP PUSH2 0x22F JUMPI POP DUP1 RETURN JUMPDEST PUSH2 0x238 SWAP1 PUSH2 0xC96 JUMP JUMPDEST DUP1 RETURN JUMPDEST DUP7 DUP1 REVERT JUMPDEST DUP6 DUP1 REVERT JUMPDEST POP POP REVERT JUMPDEST POP CALLVALUE PUSH2 0x49E JUMPI DUP2 PUSH1 0x3 NOT CALLDATASIZE ADD SLT PUSH2 0x49E JUMPI DUP1 CALLDATALOAD SWAP2 PUSH1 0x24 CALLDATALOAD SWAP2 DUP5 PUSH5 0xFFFFFFFFFF SWAP5 DUP6 DUP6 AND SWAP6 DUP7 DUP7 SUB PUSH2 0x49E JUMPI DUP3 SLOAD PUSH1 0x1 PUSH1 0x1 PUSH1 0xA0 SHL SUB SWAP7 SWAP1 PUSH2 0x28B SWAP1 DUP9 AND CALLER EQ PUSH2 0xBBB JUMP JUMPDEST PUSH1 0x3 SLOAD PUSH2 0x29E PUSH1 0xFF DUP3 PUSH1 0xF0 SHR AND ISZERO PUSH2 0xC18 JUMP JUMPDEST PUSH1 0x1 PUSH1 0xF0 SHL SWAP2 PUSH1 0xFF PUSH1 0xF0 SHL NOT SWAP10 DUP4 DUP12 DUP5 AND OR DUP1 PUSH1 0x3 SSTORE DUP2 PUSH2 0x3A7 JUMPI JUMPDEST POP POP POP POP POP POP DUP1 PUSH2 0x2D2 JUMPI JUMPDEST POP DUP5 PUSH1 0x3 SLOAD AND PUSH1 0x3 SSTORE DUP1 RETURN JUMPDEST PUSH1 0x20 SWAP1 PUSH1 0x64 PUSH2 0x2DF PUSH2 0xD85 JUMP JUMPDEST SWAP7 PUSH1 0x2 SLOAD AND SWAP2 DUP7 MLOAD SWAP5 DUP6 SWAP4 DUP5 SWAP3 PUSH4 0x23B872DD PUSH1 0xE0 SHL DUP5 MSTORE CALLER DUP10 DUP6 ADD MSTORE ADDRESS PUSH1 0x24 DUP6 ADD MSTORE PUSH1 0x44 DUP5 ADD MSTORE GAS CALL DUP1 ISZERO PUSH2 0x39D JUMPI PUSH2 0x36E JUMPI JUMPDEST POP PUSH2 0x31C PUSH2 0xD85 JUMP JUMPDEST SWAP3 DUP4 SUB SWAP3 DUP4 GT PUSH2 0x35B JUMPI POP PUSH32 0x2A89B2E3D580398D6DC2DB5E0F336B52602BBAA51AFA9BB5CDF59239CF0D2BEA SWAP2 PUSH1 0x20 SWAP2 MLOAD SWAP1 DUP2 MSTORE LOG1 CODESIZE DUP1 DUP1 DUP5 DUP2 PUSH2 0x2C6 JUMP JUMPDEST PUSH4 0x4E487B71 PUSH1 0xE0 SHL DUP6 MSTORE PUSH1 0x11 SWAP1 MSTORE PUSH1 0x24 DUP5 REVERT JUMPDEST PUSH2 0x38F SWAP1 PUSH1 0x20 RETURNDATASIZE PUSH1 0x20 GT PUSH2 0x396 JUMPI JUMPDEST PUSH2 0x387 DUP2 DUP4 PUSH2 0xCC0 JUMP JUMPDEST DUP2 ADD SWAP1 PUSH2 0xCE2 JUMP JUMPDEST POP CODESIZE PUSH2 0x313 JUMP JUMPDEST POP RETURNDATASIZE PUSH2 0x37D JUMP JUMPDEST DUP4 MLOAD RETURNDATASIZE DUP9 DUP3 RETURNDATACOPY RETURNDATASIZE SWAP1 REVERT JUMPDEST DUP6 SWAP7 SWAP8 POP PUSH1 0xC8 SWAP6 SWAP2 SWAP3 SWAP4 SWAP5 SWAP6 SHR AND DUP2 LT ISZERO SWAP1 DUP2 PUSH2 0x491 JUMPI JUMPDEST POP ISZERO PUSH2 0x428 JUMPI PUSH6 0xFFFFFFFFFFFF PUSH1 0xC8 SHL NOT SWAP1 SWAP2 AND PUSH1 0xC8 SWAP2 DUP3 SHL PUSH5 0xFFFFFFFFFF PUSH1 0xC8 SHL AND OR SWAP1 SWAP2 OR PUSH1 0x3 DUP2 SWAP1 SSTORE DUP6 MLOAD SWAP2 SHR SWAP1 SWAP2 AND DUP2 MSTORE DUP7 SWAP2 SWAP1 PUSH32 0xD316AE9629B69E6CAEC00227E7056A9D6B297BEB56BF61E651212156C716567E SWAP1 PUSH1 0x20 SWAP1 LOG1 CODESIZE DUP1 DUP1 DUP1 DUP1 DUP1 PUSH2 0x2BA JUMP JUMPDEST DUP7 MLOAD PUSH3 0x461BCD PUSH1 0xE5 SHL DUP2 MSTORE PUSH1 0x20 DUP2 DUP9 ADD MSTORE PUSH1 0x3F PUSH1 0x24 DUP3 ADD MSTORE PUSH32 0x4E657720756E6C6F636B2074696D65206D757374206265206120667574757265 PUSH1 0x44 DUP3 ADD MSTORE PUSH32 0x2074696D65206265796F6E64207468652070726576696F75732076616C756500 PUSH1 0x64 DUP3 ADD MSTORE PUSH1 0x84 SWAP1 REVERT JUMPDEST SWAP1 POP DUP5 TIMESTAMP AND GT ISZERO CODESIZE PUSH2 0x3BF JUMP JUMPDEST DUP3 DUP1 REVERT JUMPDEST POP POP CALLVALUE PUSH2 0x4C9 JUMPI DUP2 PUSH1 0x3 NOT CALLDATASIZE ADD SLT PUSH2 0x4C9 JUMPI PUSH1 0x20 SWAP1 PUSH1 0xFF PUSH1 0x1 SLOAD PUSH1 0xA0 SHR AND SWAP1 MLOAD SWAP1 ISZERO ISZERO DUP2 MSTORE RETURN JUMPDEST POP DUP1 REVERT JUMPDEST POP SWAP1 CALLVALUE PUSH2 0x49E JUMPI DUP3 PUSH1 0x3 NOT CALLDATASIZE ADD SLT PUSH2 0x49E JUMPI DUP3 SWAP1 DUP4 DUP5 SWAP1 DUP6 SWAP1 DUP7 SWAP3 DUP8 SWAP5 DUP9 SWAP7 PUSH1 0x1 SLOAD SWAP9 PUSH1 0xFF DUP11 PUSH1 0xA0 SHR AND ISZERO PUSH1 0x0 EQ PUSH2 0x548 JUMPI POP POP PUSH5 0xFFFFFFFFFF PUSH2 0x100 SWAP10 SWAP9 JUMPDEST DUP3 MLOAD SWAP10 ISZERO ISZERO DUP11 MSTORE PUSH1 0xA8 SHR AND PUSH1 0x20 DUP10 ADD MSTORE PUSH1 0x1 PUSH1 0x1 PUSH1 0xA0 SHL SUB SWAP3 DUP4 AND SWAP1 DUP9 ADD MSTORE AND PUSH1 0x60 DUP7 ADD MSTORE PUSH1 0x80 DUP6 ADD MSTORE PUSH1 0xA0 DUP5 ADD MSTORE PUSH1 0xC0 DUP4 ADD MSTORE PUSH1 0xE0 DUP3 ADD MSTORE RETURN JUMPDEST SWAP1 SWAP9 SWAP10 PUSH1 0x1 DUP1 PUSH1 0xA0 SHL SUB PUSH1 0x2 SLOAD AND DUP4 MLOAD SWAP1 PUSH4 0x2590DC9D PUSH1 0xE0 SHL DUP3 MSTORE DUP4 DUP3 ADD MSTORE PUSH1 0xC0 DUP2 PUSH1 0x24 DUP2 PUSH20 0x0 GAS DELEGATECALL DUP3 SWAP2 DUP4 DUP5 SWAP1 DUP6 SWAP2 DUP5 DUP8 SWAP5 DUP9 SWAP7 PUSH2 0x68D JUMPI JUMPDEST POP PUSH2 0x665 JUMPI POP POP POP POP POP POP PUSH1 0x1 DUP2 PUSH1 0x3 RETURNDATASIZE GT PUSH2 0x656 JUMPI JUMPDEST PUSH4 0x8C379A0 EQ PUSH2 0x63F JUMPI JUMPDEST PUSH2 0x5CD JUMPI JUMPDEST POP POP PUSH5 0xFFFFFFFFFF PUSH2 0x100 SWAP10 PUSH2 0x50D JUMP JUMPDEST SWAP1 SWAP10 SWAP9 POP RETURNDATASIZE ISZERO PUSH2 0x62E JUMPI RETURNDATASIZE PUSH8 0xFFFFFFFFFFFFFFFF DUP2 GT PUSH2 0x61B JUMPI DUP3 MLOAD PUSH2 0x100 SWAP12 POP PUSH5 0xFFFFFFFFFF SWAP3 SWAP2 PUSH2 0x60A PUSH1 0x1F DUP3 ADD PUSH1 0x1F NOT AND PUSH1 0x20 ADD DUP4 PUSH2 0xCC0 JUMP JUMPDEST DUP2 MSTORE DUP2 PUSH1 0x20 RETURNDATASIZE SWAP3 ADD RETURNDATACOPY JUMPDEST SWAP9 SWAP10 PUSH2 0x5BC JUMP JUMPDEST PUSH4 0x4E487B71 PUSH1 0xE0 SHL DUP3 MSTORE PUSH1 0x41 DUP12 MSTORE PUSH1 0x24 DUP3 REVERT JUMPDEST PUSH2 0x100 SWAP10 POP PUSH5 0xFFFFFFFFFF SWAP1 PUSH2 0x614 JUMP JUMPDEST PUSH2 0x647 PUSH2 0xD13 JUMP JUMPDEST ISZERO PUSH2 0x5B7 JUMPI POP SWAP9 POP DUP9 DUP1 PUSH2 0x5B7 JUMP JUMPDEST POP DUP3 DUP3 DUP1 RETURNDATACOPY DUP2 MLOAD PUSH1 0xE0 SHR PUSH2 0x5AC JUMP JUMPDEST SWAP9 POP SWAP9 POP SWAP9 POP SWAP9 POP SWAP9 POP SWAP10 POP POP POP PUSH2 0x100 SWAP9 SWAP7 POP PUSH5 0xFFFFFFFFFF PUSH1 0x1 SWAP9 SWAP4 SWAP3 SWAP5 SWAP6 SWAP7 SWAP8 PUSH2 0x50D JUMP JUMPDEST SWAP7 POP SWAP5 POP POP POP POP POP PUSH1 0xC0 DUP3 RETURNDATASIZE PUSH1 0xC0 GT PUSH2 0x6EC JUMPI JUMPDEST DUP2 PUSH2 0x6AE PUSH1 0xC0 SWAP4 DUP4 PUSH2 0xCC0 JUMP JUMPDEST DUP2 ADD SUB SLT PUSH2 0x49E JUMPI PUSH2 0x6BF DUP3 PUSH2 0xCFF JUMP JUMPDEST PUSH2 0x6CB PUSH1 0x20 DUP5 ADD PUSH2 0xCFF JUMP JUMPDEST SWAP3 DUP7 DUP2 ADD MLOAD PUSH1 0x60 DUP3 ADD MLOAD PUSH1 0xA0 PUSH1 0x80 DUP5 ADD MLOAD SWAP4 ADD MLOAD SWAP4 SWAP6 SWAP2 SWAP1 SWAP3 SWAP4 SWAP5 CODESIZE PUSH2 0x595 JUMP JUMPDEST RETURNDATASIZE SWAP2 POP PUSH2 0x6A1 JUMP JUMPDEST POP POP CALLVALUE PUSH2 0x4C9 JUMPI DUP2 PUSH1 0x3 NOT CALLDATASIZE ADD SLT PUSH2 0x4C9 JUMPI DUP2 SLOAD PUSH1 0x1 PUSH1 0x1 PUSH1 0xA0 SHL SUB AND SWAP1 PUSH2 0x71D CALLER DUP4 EQ PUSH2 0xBBB JUMP JUMPDEST DUP3 DUP1 DUP1 DUP1 PUSH1 0x3 SLOAD SWAP6 PUSH2 0x735 PUSH1 0xFF DUP9 PUSH1 0xF0 SHR AND ISZERO PUSH2 0xC18 JUMP JUMPDEST PUSH1 0xFF PUSH1 0xF0 SHL NOT SWAP7 DUP8 AND PUSH1 0x1 PUSH1 0xF0 SHL OR PUSH1 0x3 SSTORE SELFBALANCE SWAP1 DUP3 DUP3 ISZERO PUSH2 0x76D JUMPI JUMPDEST CALL ISZERO PUSH2 0x762 JUMPI POP PUSH1 0x3 SLOAD AND PUSH1 0x3 SSTORE DUP1 RETURN JUMPDEST MLOAD SWAP2 RETURNDATASIZE SWAP2 POP DUP3 RETURNDATACOPY RETURNDATASIZE SWAP1 REVERT JUMPDEST POP PUSH2 0x8FC PUSH2 0x751 JUMP JUMPDEST POP POP CALLVALUE PUSH2 0x4C9 JUMPI DUP2 PUSH1 0x3 NOT CALLDATASIZE ADD SLT PUSH2 0x4C9 JUMPI SWAP1 SLOAD SWAP1 MLOAD PUSH1 0x1 PUSH1 0x1 PUSH1 0xA0 SHL SUB SWAP1 SWAP2 AND DUP2 MSTORE PUSH1 0x20 SWAP1 RETURN JUMPDEST POP SWAP1 CALLVALUE PUSH2 0x49E JUMPI PUSH1 0x20 SWAP1 DUP2 PUSH1 0x3 NOT CALLDATASIZE ADD SLT PUSH2 0x950 JUMPI PUSH1 0x1 PUSH1 0x1 PUSH1 0xA0 SHL SUB SWAP3 DUP1 CALLDATALOAD DUP5 DUP2 AND SWAP1 DUP2 SWAP1 SUB PUSH2 0x23F JUMPI DUP5 DUP7 SLOAD AND PUSH2 0x7D8 CALLER DUP3 EQ PUSH2 0xBBB JUMP JUMPDEST PUSH1 0x3 SLOAD SWAP6 PUSH2 0x7EC PUSH1 0xFF DUP9 PUSH1 0xF0 SHR AND ISZERO PUSH2 0xC18 JUMP JUMPDEST PUSH1 0xFF PUSH1 0xF0 SHL NOT SWAP7 DUP8 AND PUSH1 0x1 PUSH1 0xF0 SHL OR PUSH1 0x3 SSTORE PUSH1 0x2 SLOAD AND DUP3 EQ PUSH2 0x8F1 JUMPI DUP4 MLOAD PUSH4 0x70A08231 PUSH1 0xE0 SHL DUP2 MSTORE ADDRESS DUP2 DUP6 ADD MSTORE DUP8 SWAP5 SWAP4 SWAP1 SWAP3 SWAP2 SWAP1 DUP7 DUP5 PUSH1 0x24 DUP2 DUP7 GAS STATICCALL SWAP4 DUP5 ISZERO PUSH2 0x8E7 JUMPI SWAP1 DUP8 SWAP5 SWAP4 SWAP3 SWAP2 DUP8 SWAP5 PUSH2 0x8B2 JUMPI JUMPDEST POP DUP6 MLOAD PUSH4 0xA9059CBB PUSH1 0xE0 SHL DUP2 MSTORE PUSH1 0x1 PUSH1 0x1 PUSH1 0xA0 SHL SUB SWAP1 SWAP3 AND SWAP1 DUP3 ADD SWAP1 DUP2 MSTORE PUSH1 0x20 DUP2 ADD SWAP4 SWAP1 SWAP4 MSTORE SWAP5 DUP6 SWAP3 DUP4 SWAP2 SWAP1 DUP3 SWAP1 PUSH1 0x40 ADD JUMPDEST SUB SWAP3 GAS CALL SWAP1 DUP2 ISZERO PUSH2 0x8A9 JUMPI POP PUSH2 0x88B JUMPI JUMPDEST POP POP PUSH1 0x3 SLOAD AND PUSH1 0x3 SSTORE DUP1 RETURN JUMPDEST DUP2 PUSH2 0x8A1 SWAP3 SWAP1 RETURNDATASIZE LT PUSH2 0x396 JUMPI PUSH2 0x387 DUP2 DUP4 PUSH2 0xCC0 JUMP JUMPDEST POP CODESIZE DUP1 PUSH2 0x87F JUMP JUMPDEST MLOAD RETURNDATASIZE DUP7 DUP3 RETURNDATACOPY RETURNDATASIZE SWAP1 REVERT JUMPDEST DUP6 DUP2 SWAP7 SWAP3 SWAP6 POP RETURNDATASIZE DUP4 GT PUSH2 0x8E0 JUMPI JUMPDEST PUSH2 0x8CA DUP2 DUP4 PUSH2 0xCC0 JUMP JUMPDEST DUP2 ADD SUB SLT PUSH2 0x23F JUMPI SWAP3 MLOAD DUP7 SWAP4 SWAP1 SWAP3 PUSH2 0x86E PUSH2 0x83C JUMP JUMPDEST POP RETURNDATASIZE PUSH2 0x8C0 JUMP JUMPDEST DUP6 MLOAD RETURNDATASIZE DUP9 DUP3 RETURNDATACOPY RETURNDATASIZE SWAP1 REVERT JUMPDEST DUP4 MLOAD PUSH3 0x461BCD PUSH1 0xE5 SHL DUP2 MSTORE DUP1 DUP5 ADD DUP7 SWAP1 MSTORE PUSH1 0x33 PUSH1 0x24 DUP3 ADD MSTORE PUSH32 0x557365202777697468647261772720746F207769746864726177207468652070 PUSH1 0x44 DUP3 ADD MSTORE PUSH19 0x3934B6B0B93C903637B1B5B2B2103A37B5B2B7 PUSH1 0x69 SHL PUSH1 0x64 DUP3 ADD MSTORE PUSH1 0x84 SWAP1 REVERT JUMPDEST DUP4 DUP1 REVERT JUMPDEST POP CALLVALUE PUSH2 0x49E JUMPI DUP3 PUSH1 0x3 NOT CALLDATASIZE ADD SLT PUSH2 0x49E JUMPI PUSH1 0x1 SLOAD SWAP2 PUSH5 0xFFFFFFFFFF PUSH1 0x1 DUP1 PUSH1 0xA0 SHL SUB DUP1 DUP7 SLOAD AND SWAP1 DUP1 PUSH1 0x2 SLOAD AND PUSH1 0x3 SLOAD SWAP3 PUSH2 0x98C PUSH2 0xD85 JUMP JUMPDEST SWAP6 PUSH1 0x20 DUP2 MLOAD DUP1 SWAP10 PUSH4 0x18160DDD PUSH1 0xE0 SHL DUP3 MSTORE DUP2 DUP7 GAS STATICCALL SWAP8 DUP9 ISZERO PUSH2 0xA4B JUMPI DUP11 SWAP9 PUSH2 0xA0E JUMPI JUMPDEST POP PUSH2 0x160 SWAP10 POP DUP6 DUP2 MLOAD SWAP10 PUSH1 0xFF DUP2 PUSH1 0xA0 SHR AND ISZERO ISZERO DUP12 MSTORE PUSH1 0xA8 SHR AND PUSH1 0x20 DUP11 ADD MSTORE ADDRESS SWAP1 DUP10 ADD MSTORE PUSH1 0x60 DUP9 ADD MSTORE PUSH1 0x80 DUP8 ADD MSTORE DUP2 AND PUSH1 0xA0 DUP7 ADD MSTORE DUP2 DUP2 PUSH1 0xA0 SHR AND PUSH1 0xC0 DUP7 ADD MSTORE DUP2 TIMESTAMP AND PUSH1 0xE0 DUP7 ADD MSTORE PUSH1 0xC8 SHR AND PUSH2 0x100 DUP5 ADD MSTORE PUSH2 0x120 DUP4 ADD MSTORE PUSH2 0x140 DUP3 ADD MSTORE RETURN JUMPDEST SWAP1 SWAP8 POP PUSH1 0x20 DUP2 RETURNDATASIZE PUSH1 0x20 GT PUSH2 0xA43 JUMPI JUMPDEST DUP2 PUSH2 0xA2A PUSH1 0x20 SWAP4 DUP4 PUSH2 0xCC0 JUMP JUMPDEST DUP2 ADD SUB SLT PUSH2 0xA3F JUMPI PUSH2 0x160 SWAP10 POP MLOAD SWAP7 CODESIZE PUSH2 0x9AF JUMP JUMPDEST DUP10 DUP1 REVERT JUMPDEST RETURNDATASIZE SWAP2 POP PUSH2 0xA1D JUMP JUMPDEST DUP2 MLOAD RETURNDATASIZE DUP13 DUP3 RETURNDATACOPY RETURNDATASIZE SWAP1 REVERT JUMPDEST POP SWAP1 CALLVALUE PUSH2 0x49E JUMPI DUP3 PUSH1 0x3 NOT CALLDATASIZE ADD SLT PUSH2 0x49E JUMPI DUP3 SLOAD PUSH1 0x1 PUSH1 0x1 PUSH1 0xA0 SHL SUB SWAP3 SWAP1 DUP4 AND PUSH2 0xA80 CALLER DUP3 EQ PUSH2 0xBBB JUMP JUMPDEST PUSH1 0x3 SLOAD SWAP4 PUSH2 0xA94 PUSH1 0xFF DUP7 PUSH1 0xF0 SHR AND ISZERO PUSH2 0xC18 JUMP JUMPDEST PUSH1 0xFF PUSH1 0xF0 SHL NOT SWAP5 DUP6 AND PUSH1 0x1 PUSH1 0xF0 SHL OR PUSH1 0x3 DUP2 SWAP1 SSTORE PUSH1 0xC8 SHR PUSH5 0xFFFFFFFFFF SWAP1 DUP2 AND TIMESTAMP SWAP1 SWAP2 AND LT PUSH2 0xB6D JUMPI SWAP2 PUSH1 0x20 SWAP2 PUSH2 0xB05 SWAP5 SWAP4 PUSH1 0x2 SLOAD AND SWAP1 DUP8 PUSH2 0xAD4 PUSH2 0xD85 JUMP JUMPDEST DUP7 MLOAD PUSH4 0xA9059CBB PUSH1 0xE0 SHL DUP2 MSTORE PUSH1 0x1 PUSH1 0x1 PUSH1 0xA0 SHL SUB SWAP1 SWAP4 AND SWAP5 DUP4 ADD SWAP5 DUP6 MSTORE PUSH1 0x20 DUP6 ADD MSTORE SWAP1 SWAP6 DUP7 SWAP4 DUP5 SWAP3 SWAP2 DUP4 SWAP2 PUSH1 0x40 ADD SWAP1 JUMP JUMPDEST SUB SWAP3 GAS CALL SWAP1 DUP2 ISZERO PUSH2 0xB64 JUMPI POP PUSH2 0xB45 JUMPI JUMPDEST POP PUSH32 0x2610969932116214BD675DC19941EEBA897BA78AFE8423EAAA3046445EEA28CD DUP3 DUP1 LOG1 PUSH1 0x3 SLOAD AND PUSH1 0x3 SSTORE DUP1 RETURN JUMPDEST PUSH2 0xB5D SWAP1 PUSH1 0x20 RETURNDATASIZE PUSH1 0x20 GT PUSH2 0x396 JUMPI PUSH2 0x387 DUP2 DUP4 PUSH2 0xCC0 JUMP JUMPDEST POP CODESIZE PUSH2 0xB16 JUMP JUMPDEST MLOAD RETURNDATASIZE DUP6 DUP3 RETURNDATACOPY RETURNDATASIZE SWAP1 REVERT JUMPDEST DUP4 MLOAD PUSH3 0x461BCD PUSH1 0xE5 SHL DUP2 MSTORE PUSH1 0x20 DUP2 DUP6 ADD MSTORE PUSH1 0x22 PUSH1 0x24 DUP3 ADD MSTORE PUSH32 0x5761697420756E74696C20756E6C6F636B54696D6520746F2077697468647261 PUSH1 0x44 DUP3 ADD MSTORE PUSH2 0x3B9 PUSH1 0xF5 SHL PUSH1 0x64 DUP3 ADD MSTORE PUSH1 0x84 SWAP1 REVERT JUMPDEST ISZERO PUSH2 0xBC2 JUMPI JUMP JUMPDEST PUSH1 0x40 MLOAD PUSH3 0x461BCD PUSH1 0xE5 SHL DUP2 MSTORE PUSH1 0x20 PUSH1 0x4 DUP3 ADD MSTORE PUSH1 0x28 PUSH1 0x24 DUP3 ADD MSTORE PUSH32 0x4F6E6C7920746865206F776E65722063616E2065786563757465207468697320 PUSH1 0x44 DUP3 ADD MSTORE PUSH8 0x333AB731BA34B7B7 PUSH1 0xC1 SHL PUSH1 0x64 DUP3 ADD MSTORE PUSH1 0x84 SWAP1 REVERT JUMPDEST ISZERO PUSH2 0xC1F JUMPI JUMP JUMPDEST PUSH1 0xA4 PUSH1 0x40 MLOAD PUSH3 0x461BCD PUSH1 0xE5 SHL DUP2 MSTORE PUSH1 0x20 PUSH1 0x4 DUP3 ADD MSTORE PUSH1 0x44 PUSH1 0x24 DUP3 ADD MSTORE PUSH32 0x5472616E73666572696E67206973206C6F636B65642E205761697420666F7220 PUSH1 0x44 DUP3 ADD MSTORE PUSH32 0x7468652070726576696F7573207472616E73616374696F6E20746F20636F6D70 PUSH1 0x64 DUP3 ADD MSTORE PUSH4 0x6C657465 PUSH1 0xE0 SHL PUSH1 0x84 DUP3 ADD MSTORE REVERT JUMPDEST PUSH8 0xFFFFFFFFFFFFFFFF DUP2 GT PUSH2 0xCAA JUMPI PUSH1 0x40 MSTORE JUMP JUMPDEST PUSH4 0x4E487B71 PUSH1 0xE0 SHL PUSH1 0x0 MSTORE PUSH1 0x41 PUSH1 0x4 MSTORE PUSH1 0x24 PUSH1 0x0 REVERT JUMPDEST SWAP1 PUSH1 0x1F DUP1 NOT SWAP2 ADD AND DUP2 ADD SWAP1 DUP2 LT PUSH8 0xFFFFFFFFFFFFFFFF DUP3 GT OR PUSH2 0xCAA JUMPI PUSH1 0x40 MSTORE JUMP JUMPDEST SWAP1 DUP2 PUSH1 0x20 SWAP2 SUB SLT PUSH2 0xCFA JUMPI MLOAD DUP1 ISZERO ISZERO DUP2 SUB PUSH2 0xCFA JUMPI SWAP1 JUMP JUMPDEST PUSH1 0x0 DUP1 REVERT JUMPDEST MLOAD SWAP1 PUSH1 0x1 PUSH1 0x1 PUSH1 0xA0 SHL SUB DUP3 AND DUP3 SUB PUSH2 0xCFA JUMPI JUMP JUMPDEST PUSH1 0x0 PUSH1 0x44 RETURNDATASIZE LT PUSH2 0xD71 JUMPI PUSH1 0x40 MLOAD PUSH1 0x3 NOT SWAP2 RETURNDATASIZE DUP4 ADD PUSH1 0x4 DUP4 RETURNDATACOPY DUP2 MLOAD PUSH8 0xFFFFFFFFFFFFFFFF SWAP2 DUP3 DUP3 GT RETURNDATASIZE PUSH1 0x24 DUP5 ADD GT OR PUSH2 0xD74 JUMPI DUP2 DUP5 ADD SWAP5 DUP6 MLOAD SWAP4 DUP5 GT PUSH2 0xD7C JUMPI RETURNDATASIZE DUP6 ADD ADD PUSH1 0x20 DUP5 DUP8 ADD ADD GT PUSH2 0xD74 JUMPI POP PUSH2 0xD71 SWAP3 SWAP2 ADD PUSH1 0x20 ADD SWAP1 PUSH2 0xCC0 JUMP JUMPDEST SWAP1 JUMP JUMPDEST SWAP5 SWAP4 POP POP POP POP JUMP JUMPDEST POP SWAP5 SWAP4 POP POP POP POP JUMP JUMPDEST PUSH1 0x2 SLOAD PUSH1 0x40 MLOAD PUSH4 0x70A08231 PUSH1 0xE0 SHL DUP2 MSTORE ADDRESS PUSH1 0x4 DUP3 ADD MSTORE SWAP1 PUSH1 0x20 SWAP1 DUP3 SWAP1 PUSH1 0x24 SWAP1 DUP3 SWAP1 PUSH1 0x1 PUSH1 0x1 PUSH1 0xA0 SHL SUB AND GAS STATICCALL SWAP1 DUP2 ISZERO PUSH2 0xDF2 JUMPI PUSH1 0x0 SWAP2 PUSH2 0xDC3 JUMPI POP SWAP1 JUMP JUMPDEST SWAP1 POP PUSH1 0x20 DUP2 RETURNDATASIZE PUSH1 0x20 GT PUSH2 0xDEA JUMPI JUMPDEST DUP2 PUSH2 0xDDE PUSH1 0x20 SWAP4 DUP4 PUSH2 0xCC0 JUMP JUMPDEST DUP2 ADD SUB SLT PUSH2 0xCFA JUMPI MLOAD SWAP1 JUMP JUMPDEST RETURNDATASIZE SWAP2 POP PUSH2 0xDD1 JUMP JUMPDEST PUSH1 0x40 MLOAD RETURNDATASIZE PUSH1 0x0 DUP3 RETURNDATACOPY RETURNDATASIZE SWAP1 REVERT INVALID LOG2 PUSH5 0x6970667358 0x22 SLT KECCAK256 0xB2 DUP3 SWAP12 MUL CALLER PUSH10 0xF84F8E8BAD328D085859 0xCE 0xCA 0xF9 0x27 DUP16 BLOBHASH 0xDA PUSH20 0x596E5CE57532607A64736F6C6343000818003300 "},"methodIdentifiers":{"deposit(uint256,uint40)":"d88e7f4e","getIsLpToken()":"b05fb26f","getLockData()":"4c02bf0b","getLpData()":"af74e629","owner()":"8da5cb5b","transferOwnership(address)":"f2fde38b","withdraw()":"3ccfd60b","withdrawEth()":"a0ef91df","withdrawToken(address)":"89476069"}}}}}