{"contracts/locker/Util.sol":{"Util":{"abi":[{"inputs":[{"internalType":"address","name":"address_","type":"address"}],"name":"getLpData","outputs":[{"internalType":"address","name":"token0","type":"address"},{"internalType":"address","name":"token1","type":"address"},{"internalType":"uint256","name":"balance0","type":"uint256"},{"internalType":"uint256","name":"balance1","type":"uint256"},{"internalType":"uint256","name":"price0","type":"uint256"},{"internalType":"uint256","name":"price1","type":"uint256"}],"stateMutability":"view","type":"function"},{"inputs":[{"internalType":"address","name":"address_","type":"address"}],"name":"getTokenData","outputs":[{"internalType":"string","name":"name","type":"string"},{"internalType":"string","name":"symbol","type":"string"},{"internalType":"uint8","name":"decimals","type":"uint8"},{"internalType":"uint256","name":"totalSupply","type":"uint256"},{"internalType":"uint256","name":"balance","type":"uint256"}],"stateMutability":"view","type":"function"},{"inputs":[{"internalType":"address","name":"address_","type":"address"}],"name":"isLpToken","outputs":[{"internalType":"bool","name":"","type":"bool"}],"stateMutability":"view","type":"function"}],"evm":{"bytecode":{"linkReferences":{},"object":"6080806040523461001a576107a69081610020823930815050f35b600080fdfe6040608081526004908136101561001557600080fd5b600091823560e01c80630f24ca7d146104e057806313ff7e9f146102ab57632590dc9d1461004257600080fd5b602091826003193601126102a75781356001600160a01b0381811692918390036102a3578151630dfe168160e01b81529185838681875afa92831561029957879361027a575b50805163d21220a760e01b81529286848781885afa93841561027057889461023f575b508216958151926370a0823160e01b94858552868886015282856024818c5afa9485156101d7578a95610210575b501690825194855285878601528085602481855afa94851561019a5789956101e1575b508251635909c0d560e01b81529581878981845afa9687156101d7578a976101a4575b508190845198898092635a3d549360e01b82525afa96871561019a578997610163575b5060c0985082519788528701528501526060840152608083015260a0820152f35b9080975081813d8311610193575b61017b8183610560565b8101031261018f5760c09850519538610142565b8880fd5b503d610171565b83513d8b823e3d90fd5b9096508181813d83116101d0575b6101bc8183610560565b810103126101cc5751958161011f565b8980fd5b503d6101b2565b84513d8c823e3d90fd5b9080955081813d8311610209575b6101f98183610560565b8101031261018f575193386100fc565b503d6101ef565b9094508281813d8311610238575b6102288183610560565b810103126101cc575193386100d9565b503d61021e565b8391945061026290883d8a11610269575b61025a8183610560565b810190610598565b93906100ab565b503d610250565b82513d8a823e3d90fd5b610292919350863d88116102695761025a8183610560565b9138610088565b81513d89823e3d90fd5b8580fd5b8380fd5b50602092836003193601126103f35781356001600160a01b03811692908390036104dc5783516306fdde0360e01b81529382858381875afa9485156104d25783956104b6575b5080516395d89b4160e01b815283818481885afa9081156104ac57849161048a575b50815163313ce56760e01b81529487868581845afa958615610480578596610443575b5082516318160ddd60e01b81529388858281855afa948515610439579089918796610408575b5060248551809481936370a0823160e01b835233908301525afa9485156103fd5780956103c4575b50506103b06103a39760ff928451998a9960a08b5260a08b019061053b565b91898303908a015261053b565b941690850152606084015260808301520390f35b909194508782813d83116103f6575b6103dd8183610560565b810103126103f3575051926103b06103a3610384565b80fd5b503d6103d3565b8351903d90823e3d90fd5b8281939297503d8311610432575b6104208183610560565b810103126102a357889051943861035c565b503d610416565b84513d88823e3d90fd5b9095508781813d8311610479575b61045b8183610560565b81010312610475575160ff81168103610475579438610336565b8480fd5b503d610451565b83513d87823e3d90fd5b6104a691503d8086833e61049e8183610560565b810190610711565b38610313565b82513d86823e3d90fd5b6104cb9195503d8085833e61049e8183610560565b93386102f1565b81513d85823e3d90fd5b5080fd5b5060203660031901126105145735916001600160a01b03831683036103f3575061050b60209261064a565b90519015158152f35b8280fd5b60005b83811061052b5750506000910152565b818101518382015260200161051b565b9060209161055481518092818552858086019101610518565b601f01601f1916010190565b90601f8019910116810190811067ffffffffffffffff82111761058257604052565b634e487b7160e01b600052604160045260246000fd5b908160209103126105b757516001600160a01b03811681036105b75790565b600080fd5b600060443d1061061a57604051600319913d83016004833e815167ffffffffffffffff918282113d60248401111761061d57818401948551938411610625573d8501016020848701011161061d575061061a92910160200190610560565b90565b949350505050565b50949350505050565b67ffffffffffffffff811161058257601f01601f191660200190565b604051630dfe168160e01b81526001600160a01b03916020908290600490829086165afa600091816106f0575b506106ea575050600060033d116106d8575b6308c379a0146106c6575b3d156106c1573d6106a48161062e565b906106b26040519283610560565b8152600060203d92013e600090565b600090565b6106ce6105bc565b1561069457600090565b5060046000803e60005160e01c610689565b16151590565b61070a91925060203d6020116102695761025a8183610560565b9038610677565b6020818303126105b75780519067ffffffffffffffff82116105b7570181601f820112156105b75780516107448161062e565b926107526040519485610560565b818452602082840101116105b75761061a916020808501910161051856fea26469706673582212200d33d7018ca69fca846d1768f1ba27462658e808889e880eeb538f685882cf8664736f6c63430008180033","opcodes":"PUSH1 0x80 DUP1 PUSH1 0x40 MSTORE CALLVALUE PUSH2 0x1A JUMPI PUSH2 0x7A6 SWAP1 DUP2 PUSH2 0x20 DUP3 CODECOPY ADDRESS DUP2 POP POP RETURN JUMPDEST PUSH1 0x0 DUP1 REVERT INVALID PUSH1 0x40 PUSH1 0x80 DUP2 MSTORE PUSH1 0x4 SWAP1 DUP2 CALLDATASIZE LT ISZERO PUSH2 0x15 JUMPI PUSH1 0x0 DUP1 REVERT JUMPDEST PUSH1 0x0 SWAP2 DUP3 CALLDATALOAD PUSH1 0xE0 SHR DUP1 PUSH4 0xF24CA7D EQ PUSH2 0x4E0 JUMPI DUP1 PUSH4 0x13FF7E9F EQ PUSH2 0x2AB JUMPI PUSH4 0x2590DC9D EQ PUSH2 0x42 JUMPI PUSH1 0x0 DUP1 REVERT JUMPDEST PUSH1 0x20 SWAP2 DUP3 PUSH1 0x3 NOT CALLDATASIZE ADD SLT PUSH2 0x2A7 JUMPI DUP2 CALLDATALOAD PUSH1 0x1 PUSH1 0x1 PUSH1 0xA0 SHL SUB DUP2 DUP2 AND SWAP3 SWAP2 DUP4 SWAP1 SUB PUSH2 0x2A3 JUMPI DUP2 MLOAD PUSH4 0xDFE1681 PUSH1 0xE0 SHL DUP2 MSTORE SWAP2 DUP6 DUP4 DUP7 DUP2 DUP8 GAS STATICCALL SWAP3 DUP4 ISZERO PUSH2 0x299 JUMPI DUP8 SWAP4 PUSH2 0x27A JUMPI JUMPDEST POP DUP1 MLOAD PUSH4 0xD21220A7 PUSH1 0xE0 SHL DUP2 MSTORE SWAP3 DUP7 DUP5 DUP8 DUP2 DUP9 GAS STATICCALL SWAP4 DUP5 ISZERO PUSH2 0x270 JUMPI DUP9 SWAP5 PUSH2 0x23F JUMPI JUMPDEST POP DUP3 AND SWAP6 DUP2 MLOAD SWAP3 PUSH4 0x70A08231 PUSH1 0xE0 SHL SWAP5 DUP6 DUP6 MSTORE DUP7 DUP9 DUP7 ADD MSTORE DUP3 DUP6 PUSH1 0x24 DUP2 DUP13 GAS STATICCALL SWAP5 DUP6 ISZERO PUSH2 0x1D7 JUMPI DUP11 SWAP6 PUSH2 0x210 JUMPI JUMPDEST POP AND SWAP1 DUP3 MLOAD SWAP5 DUP6 MSTORE DUP6 DUP8 DUP7 ADD MSTORE DUP1 DUP6 PUSH1 0x24 DUP2 DUP6 GAS STATICCALL SWAP5 DUP6 ISZERO PUSH2 0x19A JUMPI DUP10 SWAP6 PUSH2 0x1E1 JUMPI JUMPDEST POP DUP3 MLOAD PUSH4 0x5909C0D5 PUSH1 0xE0 SHL DUP2 MSTORE SWAP6 DUP2 DUP8 DUP10 DUP2 DUP5 GAS STATICCALL SWAP7 DUP8 ISZERO PUSH2 0x1D7 JUMPI DUP11 SWAP8 PUSH2 0x1A4 JUMPI JUMPDEST POP DUP2 SWAP1 DUP5 MLOAD SWAP9 DUP10 DUP1 SWAP3 PUSH4 0x5A3D5493 PUSH1 0xE0 SHL DUP3 MSTORE GAS STATICCALL SWAP7 DUP8 ISZERO PUSH2 0x19A JUMPI DUP10 SWAP8 PUSH2 0x163 JUMPI JUMPDEST POP PUSH1 0xC0 SWAP9 POP DUP3 MLOAD SWAP8 DUP9 MSTORE DUP8 ADD MSTORE DUP6 ADD MSTORE PUSH1 0x60 DUP5 ADD MSTORE PUSH1 0x80 DUP4 ADD MSTORE PUSH1 0xA0 DUP3 ADD MSTORE RETURN JUMPDEST SWAP1 DUP1 SWAP8 POP DUP2 DUP2 RETURNDATASIZE DUP4 GT PUSH2 0x193 JUMPI JUMPDEST PUSH2 0x17B DUP2 DUP4 PUSH2 0x560 JUMP JUMPDEST DUP2 ADD SUB SLT PUSH2 0x18F JUMPI PUSH1 0xC0 SWAP9 POP MLOAD SWAP6 CODESIZE PUSH2 0x142 JUMP JUMPDEST DUP9 DUP1 REVERT JUMPDEST POP RETURNDATASIZE PUSH2 0x171 JUMP JUMPDEST DUP4 MLOAD RETURNDATASIZE DUP12 DUP3 RETURNDATACOPY RETURNDATASIZE SWAP1 REVERT JUMPDEST SWAP1 SWAP7 POP DUP2 DUP2 DUP2 RETURNDATASIZE DUP4 GT PUSH2 0x1D0 JUMPI JUMPDEST PUSH2 0x1BC DUP2 DUP4 PUSH2 0x560 JUMP JUMPDEST DUP2 ADD SUB SLT PUSH2 0x1CC JUMPI MLOAD SWAP6 DUP2 PUSH2 0x11F JUMP JUMPDEST DUP10 DUP1 REVERT JUMPDEST POP RETURNDATASIZE PUSH2 0x1B2 JUMP JUMPDEST DUP5 MLOAD RETURNDATASIZE DUP13 DUP3 RETURNDATACOPY RETURNDATASIZE SWAP1 REVERT JUMPDEST SWAP1 DUP1 SWAP6 POP DUP2 DUP2 RETURNDATASIZE DUP4 GT PUSH2 0x209 JUMPI JUMPDEST PUSH2 0x1F9 DUP2 DUP4 PUSH2 0x560 JUMP JUMPDEST DUP2 ADD SUB SLT PUSH2 0x18F JUMPI MLOAD SWAP4 CODESIZE PUSH2 0xFC JUMP JUMPDEST POP RETURNDATASIZE PUSH2 0x1EF JUMP JUMPDEST SWAP1 SWAP5 POP DUP3 DUP2 DUP2 RETURNDATASIZE DUP4 GT PUSH2 0x238 JUMPI JUMPDEST PUSH2 0x228 DUP2 DUP4 PUSH2 0x560 JUMP JUMPDEST DUP2 ADD SUB SLT PUSH2 0x1CC JUMPI MLOAD SWAP4 CODESIZE PUSH2 0xD9 JUMP JUMPDEST POP RETURNDATASIZE PUSH2 0x21E JUMP JUMPDEST DUP4 SWAP2 SWAP5 POP PUSH2 0x262 SWAP1 DUP9 RETURNDATASIZE DUP11 GT PUSH2 0x269 JUMPI JUMPDEST PUSH2 0x25A DUP2 DUP4 PUSH2 0x560 JUMP JUMPDEST DUP2 ADD SWAP1 PUSH2 0x598 JUMP JUMPDEST SWAP4 SWAP1 PUSH2 0xAB JUMP JUMPDEST POP RETURNDATASIZE PUSH2 0x250 JUMP JUMPDEST DUP3 MLOAD RETURNDATASIZE DUP11 DUP3 RETURNDATACOPY RETURNDATASIZE SWAP1 REVERT JUMPDEST PUSH2 0x292 SWAP2 SWAP4 POP DUP7 RETURNDATASIZE DUP9 GT PUSH2 0x269 JUMPI PUSH2 0x25A DUP2 DUP4 PUSH2 0x560 JUMP JUMPDEST SWAP2 CODESIZE PUSH2 0x88 JUMP JUMPDEST DUP2 MLOAD RETURNDATASIZE DUP10 DUP3 RETURNDATACOPY RETURNDATASIZE SWAP1 REVERT JUMPDEST DUP6 DUP1 REVERT JUMPDEST DUP4 DUP1 REVERT JUMPDEST POP PUSH1 0x20 SWAP3 DUP4 PUSH1 0x3 NOT CALLDATASIZE ADD SLT PUSH2 0x3F3 JUMPI DUP2 CALLDATALOAD PUSH1 0x1 PUSH1 0x1 PUSH1 0xA0 SHL SUB DUP2 AND SWAP3 SWAP1 DUP4 SWAP1 SUB PUSH2 0x4DC JUMPI DUP4 MLOAD PUSH4 0x6FDDE03 PUSH1 0xE0 SHL DUP2 MSTORE SWAP4 DUP3 DUP6 DUP4 DUP2 DUP8 GAS STATICCALL SWAP5 DUP6 ISZERO PUSH2 0x4D2 JUMPI DUP4 SWAP6 PUSH2 0x4B6 JUMPI JUMPDEST POP DUP1 MLOAD PUSH4 0x95D89B41 PUSH1 0xE0 SHL DUP2 MSTORE DUP4 DUP2 DUP5 DUP2 DUP9 GAS STATICCALL SWAP1 DUP2 ISZERO PUSH2 0x4AC JUMPI DUP5 SWAP2 PUSH2 0x48A JUMPI JUMPDEST POP DUP2 MLOAD PUSH4 0x313CE567 PUSH1 0xE0 SHL DUP2 MSTORE SWAP5 DUP8 DUP7 DUP6 DUP2 DUP5 GAS STATICCALL SWAP6 DUP7 ISZERO PUSH2 0x480 JUMPI DUP6 SWAP7 PUSH2 0x443 JUMPI JUMPDEST POP DUP3 MLOAD PUSH4 0x18160DDD PUSH1 0xE0 SHL DUP2 MSTORE SWAP4 DUP9 DUP6 DUP3 DUP2 DUP6 GAS STATICCALL SWAP5 DUP6 ISZERO PUSH2 0x439 JUMPI SWAP1 DUP10 SWAP2 DUP8 SWAP7 PUSH2 0x408 JUMPI JUMPDEST POP PUSH1 0x24 DUP6 MLOAD DUP1 SWAP5 DUP2 SWAP4 PUSH4 0x70A08231 PUSH1 0xE0 SHL DUP4 MSTORE CALLER SWAP1 DUP4 ADD MSTORE GAS STATICCALL SWAP5 DUP6 ISZERO PUSH2 0x3FD JUMPI DUP1 SWAP6 PUSH2 0x3C4 JUMPI JUMPDEST POP POP PUSH2 0x3B0 PUSH2 0x3A3 SWAP8 PUSH1 0xFF SWAP3 DUP5 MLOAD SWAP10 DUP11 SWAP10 PUSH1 0xA0 DUP12 MSTORE PUSH1 0xA0 DUP12 ADD SWAP1 PUSH2 0x53B JUMP JUMPDEST SWAP2 DUP10 DUP4 SUB SWAP1 DUP11 ADD MSTORE PUSH2 0x53B JUMP JUMPDEST SWAP5 AND SWAP1 DUP6 ADD MSTORE PUSH1 0x60 DUP5 ADD MSTORE PUSH1 0x80 DUP4 ADD MSTORE SUB SWAP1 RETURN JUMPDEST SWAP1 SWAP2 SWAP5 POP DUP8 DUP3 DUP2 RETURNDATASIZE DUP4 GT PUSH2 0x3F6 JUMPI JUMPDEST PUSH2 0x3DD DUP2 DUP4 PUSH2 0x560 JUMP JUMPDEST DUP2 ADD SUB SLT PUSH2 0x3F3 JUMPI POP MLOAD SWAP3 PUSH2 0x3B0 PUSH2 0x3A3 PUSH2 0x384 JUMP JUMPDEST DUP1 REVERT JUMPDEST POP RETURNDATASIZE PUSH2 0x3D3 JUMP JUMPDEST DUP4 MLOAD SWAP1 RETURNDATASIZE SWAP1 DUP3 RETURNDATACOPY RETURNDATASIZE SWAP1 REVERT JUMPDEST DUP3 DUP2 SWAP4 SWAP3 SWAP8 POP RETURNDATASIZE DUP4 GT PUSH2 0x432 JUMPI JUMPDEST PUSH2 0x420 DUP2 DUP4 PUSH2 0x560 JUMP JUMPDEST DUP2 ADD SUB SLT PUSH2 0x2A3 JUMPI DUP9 SWAP1 MLOAD SWAP5 CODESIZE PUSH2 0x35C JUMP JUMPDEST POP RETURNDATASIZE PUSH2 0x416 JUMP JUMPDEST DUP5 MLOAD RETURNDATASIZE DUP9 DUP3 RETURNDATACOPY RETURNDATASIZE SWAP1 REVERT JUMPDEST SWAP1 SWAP6 POP DUP8 DUP2 DUP2 RETURNDATASIZE DUP4 GT PUSH2 0x479 JUMPI JUMPDEST PUSH2 0x45B DUP2 DUP4 PUSH2 0x560 JUMP JUMPDEST DUP2 ADD SUB SLT PUSH2 0x475 JUMPI MLOAD PUSH1 0xFF DUP2 AND DUP2 SUB PUSH2 0x475 JUMPI SWAP5 CODESIZE PUSH2 0x336 JUMP JUMPDEST DUP5 DUP1 REVERT JUMPDEST POP RETURNDATASIZE PUSH2 0x451 JUMP JUMPDEST DUP4 MLOAD RETURNDATASIZE DUP8 DUP3 RETURNDATACOPY RETURNDATASIZE SWAP1 REVERT JUMPDEST PUSH2 0x4A6 SWAP2 POP RETURNDATASIZE DUP1 DUP7 DUP4 RETURNDATACOPY PUSH2 0x49E DUP2 DUP4 PUSH2 0x560 JUMP JUMPDEST DUP2 ADD SWAP1 PUSH2 0x711 JUMP JUMPDEST CODESIZE PUSH2 0x313 JUMP JUMPDEST DUP3 MLOAD RETURNDATASIZE DUP7 DUP3 RETURNDATACOPY RETURNDATASIZE SWAP1 REVERT JUMPDEST PUSH2 0x4CB SWAP2 SWAP6 POP RETURNDATASIZE DUP1 DUP6 DUP4 RETURNDATACOPY PUSH2 0x49E DUP2 DUP4 PUSH2 0x560 JUMP JUMPDEST SWAP4 CODESIZE PUSH2 0x2F1 JUMP JUMPDEST DUP2 MLOAD RETURNDATASIZE DUP6 DUP3 RETURNDATACOPY RETURNDATASIZE SWAP1 REVERT JUMPDEST POP DUP1 REVERT JUMPDEST POP PUSH1 0x20 CALLDATASIZE PUSH1 0x3 NOT ADD SLT PUSH2 0x514 JUMPI CALLDATALOAD SWAP2 PUSH1 0x1 PUSH1 0x1 PUSH1 0xA0 SHL SUB DUP4 AND DUP4 SUB PUSH2 0x3F3 JUMPI POP PUSH2 0x50B PUSH1 0x20 SWAP3 PUSH2 0x64A JUMP JUMPDEST SWAP1 MLOAD SWAP1 ISZERO ISZERO DUP2 MSTORE RETURN JUMPDEST DUP3 DUP1 REVERT JUMPDEST PUSH1 0x0 JUMPDEST DUP4 DUP2 LT PUSH2 0x52B JUMPI POP POP PUSH1 0x0 SWAP2 ADD MSTORE JUMP JUMPDEST DUP2 DUP2 ADD MLOAD DUP4 DUP3 ADD MSTORE PUSH1 0x20 ADD PUSH2 0x51B JUMP JUMPDEST SWAP1 PUSH1 0x20 SWAP2 PUSH2 0x554 DUP2 MLOAD DUP1 SWAP3 DUP2 DUP6 MSTORE DUP6 DUP1 DUP7 ADD SWAP2 ADD PUSH2 0x518 JUMP JUMPDEST PUSH1 0x1F ADD PUSH1 0x1F NOT AND ADD ADD SWAP1 JUMP JUMPDEST SWAP1 PUSH1 0x1F DUP1 NOT SWAP2 ADD AND DUP2 ADD SWAP1 DUP2 LT PUSH8 0xFFFFFFFFFFFFFFFF DUP3 GT OR PUSH2 0x582 JUMPI PUSH1 0x40 MSTORE JUMP JUMPDEST PUSH4 0x4E487B71 PUSH1 0xE0 SHL PUSH1 0x0 MSTORE PUSH1 0x41 PUSH1 0x4 MSTORE PUSH1 0x24 PUSH1 0x0 REVERT JUMPDEST SWAP1 DUP2 PUSH1 0x20 SWAP2 SUB SLT PUSH2 0x5B7 JUMPI MLOAD PUSH1 0x1 PUSH1 0x1 PUSH1 0xA0 SHL SUB DUP2 AND DUP2 SUB PUSH2 0x5B7 JUMPI SWAP1 JUMP JUMPDEST PUSH1 0x0 DUP1 REVERT JUMPDEST PUSH1 0x0 PUSH1 0x44 RETURNDATASIZE LT PUSH2 0x61A JUMPI PUSH1 0x40 MLOAD PUSH1 0x3 NOT SWAP2 RETURNDATASIZE DUP4 ADD PUSH1 0x4 DUP4 RETURNDATACOPY DUP2 MLOAD PUSH8 0xFFFFFFFFFFFFFFFF SWAP2 DUP3 DUP3 GT RETURNDATASIZE PUSH1 0x24 DUP5 ADD GT OR PUSH2 0x61D JUMPI DUP2 DUP5 ADD SWAP5 DUP6 MLOAD SWAP4 DUP5 GT PUSH2 0x625 JUMPI RETURNDATASIZE DUP6 ADD ADD PUSH1 0x20 DUP5 DUP8 ADD ADD GT PUSH2 0x61D JUMPI POP PUSH2 0x61A SWAP3 SWAP2 ADD PUSH1 0x20 ADD SWAP1 PUSH2 0x560 JUMP JUMPDEST SWAP1 JUMP JUMPDEST SWAP5 SWAP4 POP POP POP POP JUMP JUMPDEST POP SWAP5 SWAP4 POP POP POP POP JUMP JUMPDEST PUSH8 0xFFFFFFFFFFFFFFFF DUP2 GT PUSH2 0x582 JUMPI PUSH1 0x1F ADD PUSH1 0x1F NOT AND PUSH1 0x20 ADD SWAP1 JUMP JUMPDEST PUSH1 0x40 MLOAD PUSH4 0xDFE1681 PUSH1 0xE0 SHL DUP2 MSTORE PUSH1 0x1 PUSH1 0x1 PUSH1 0xA0 SHL SUB SWAP2 PUSH1 0x20 SWAP1 DUP3 SWAP1 PUSH1 0x4 SWAP1 DUP3 SWAP1 DUP7 AND GAS STATICCALL PUSH1 0x0 SWAP2 DUP2 PUSH2 0x6F0 JUMPI JUMPDEST POP PUSH2 0x6EA JUMPI POP POP PUSH1 0x0 PUSH1 0x3 RETURNDATASIZE GT PUSH2 0x6D8 JUMPI JUMPDEST PUSH4 0x8C379A0 EQ PUSH2 0x6C6 JUMPI JUMPDEST RETURNDATASIZE ISZERO PUSH2 0x6C1 JUMPI RETURNDATASIZE PUSH2 0x6A4 DUP2 PUSH2 0x62E JUMP JUMPDEST SWAP1 PUSH2 0x6B2 PUSH1 0x40 MLOAD SWAP3 DUP4 PUSH2 0x560 JUMP JUMPDEST DUP2 MSTORE PUSH1 0x0 PUSH1 0x20 RETURNDATASIZE SWAP3 ADD RETURNDATACOPY PUSH1 0x0 SWAP1 JUMP JUMPDEST PUSH1 0x0 SWAP1 JUMP JUMPDEST PUSH2 0x6CE PUSH2 0x5BC JUMP JUMPDEST ISZERO PUSH2 0x694 JUMPI PUSH1 0x0 SWAP1 JUMP JUMPDEST POP PUSH1 0x4 PUSH1 0x0 DUP1 RETURNDATACOPY PUSH1 0x0 MLOAD PUSH1 0xE0 SHR PUSH2 0x689 JUMP JUMPDEST AND ISZERO ISZERO SWAP1 JUMP JUMPDEST PUSH2 0x70A SWAP2 SWAP3 POP PUSH1 0x20 RETURNDATASIZE PUSH1 0x20 GT PUSH2 0x269 JUMPI PUSH2 0x25A DUP2 DUP4 PUSH2 0x560 JUMP JUMPDEST SWAP1 CODESIZE PUSH2 0x677 JUMP JUMPDEST PUSH1 0x20 DUP2 DUP4 SUB SLT PUSH2 0x5B7 JUMPI DUP1 MLOAD SWAP1 PUSH8 0xFFFFFFFFFFFFFFFF DUP3 GT PUSH2 0x5B7 JUMPI ADD DUP2 PUSH1 0x1F DUP3 ADD SLT ISZERO PUSH2 0x5B7 JUMPI DUP1 MLOAD PUSH2 0x744 DUP2 PUSH2 0x62E JUMP JUMPDEST SWAP3 PUSH2 0x752 PUSH1 0x40 MLOAD SWAP5 DUP6 PUSH2 0x560 JUMP JUMPDEST DUP2 DUP5 MSTORE PUSH1 0x20 DUP3 DUP5 ADD ADD GT PUSH2 0x5B7 JUMPI PUSH2 0x61A SWAP2 PUSH1 0x20 DUP1 DUP6 ADD SWAP2 ADD PUSH2 0x518 JUMP INVALID LOG2 PUSH5 0x6970667358 0x22 SLT KECCAK256 0xD CALLER 0xD7 ADD DUP13 0xA6 SWAP16 0xCA DUP5 PUSH14 0x1768F1BA27462658E808889E880E 0xEB MSTORE8 DUP16 PUSH9 0x5882CF8664736F6C63 NUMBER STOP ADDMOD XOR STOP CALLER "},"methodIdentifiers":{"getLpData(address)":"2590dc9d","getTokenData(address)":"13ff7e9f","isLpToken(address)":"0f24ca7d"}}}}}