{
  "_format": "hh-sol-artifact-1",
  "contractName": "TokenLockerManagerV1",
  "sourceName": "contracts/locker/TokenLockerManagerV1.sol",
  "abi": [
    {
      "inputs": [],
      "stateMutability": "nonpayable",
      "type": "constructor"
    },
    {
      "anonymous": false,
      "inputs": [
        {
          "indexed": false,
          "internalType": "uint40",
          "name": "id",
          "type": "uint40"
        },
        {
          "indexed": true,
          "internalType": "address",
          "name": "token",
          "type": "address"
        },
        {
          "indexed": true,
          "internalType": "address",
          "name": "token0",
          "type": "address"
        },
        {
          "indexed": true,
          "internalType": "address",
          "name": "token1",
          "type": "address"
        },
        {
          "indexed": false,
          "internalType": "address",
          "name": "createdBy",
          "type": "address"
        },
        {
          "indexed": false,
          "internalType": "uint256",
          "name": "balance",
          "type": "uint256"
        },
        {
          "indexed": false,
          "internalType": "uint40",
          "name": "unlockTime",
          "type": "uint40"
        }
      ],
      "name": "LpLockerCreated",
      "type": "event"
    },
    {
      "anonymous": false,
      "inputs": [
        {
          "indexed": true,
          "internalType": "address",
          "name": "oldOwner",
          "type": "address"
        },
        {
          "indexed": true,
          "internalType": "address",
          "name": "newOwner",
          "type": "address"
        }
      ],
      "name": "OwnershipTransferred",
      "type": "event"
    },
    {
      "anonymous": false,
      "inputs": [
        {
          "indexed": false,
          "internalType": "uint40",
          "name": "id",
          "type": "uint40"
        },
        {
          "indexed": true,
          "internalType": "address",
          "name": "token",
          "type": "address"
        },
        {
          "indexed": false,
          "internalType": "address",
          "name": "createdBy",
          "type": "address"
        },
        {
          "indexed": false,
          "internalType": "uint256",
          "name": "balance",
          "type": "uint256"
        },
        {
          "indexed": false,
          "internalType": "uint40",
          "name": "unlockTime",
          "type": "uint40"
        }
      ],
      "name": "TokenLockerCreated",
      "type": "event"
    },
    {
      "inputs": [],
      "name": "LpLockerFee",
      "outputs": [
        {
          "internalType": "uint256",
          "name": "",
          "type": "uint256"
        }
      ],
      "stateMutability": "view",
      "type": "function"
    },
    {
      "inputs": [],
      "name": "TokenLockerFee",
      "outputs": [
        {
          "internalType": "uint256",
          "name": "",
          "type": "uint256"
        }
      ],
      "stateMutability": "view",
      "type": "function"
    },
    {
      "inputs": [
        {
          "internalType": "address",
          "name": "lpAddress_",
          "type": "address"
        },
        {
          "internalType": "uint256",
          "name": "amount_",
          "type": "uint256"
        },
        {
          "internalType": "uint40",
          "name": "unlockTime_",
          "type": "uint40"
        }
      ],
      "name": "createLpLocker",
      "outputs": [],
      "stateMutability": "payable",
      "type": "function"
    },
    {
      "inputs": [
        {
          "internalType": "address",
          "name": "tokenAddress_",
          "type": "address"
        },
        {
          "internalType": "uint256",
          "name": "amount_",
          "type": "uint256"
        },
        {
          "internalType": "uint40",
          "name": "unlockTime_",
          "type": "uint40"
        }
      ],
      "name": "createTokenLocker",
      "outputs": [],
      "stateMutability": "payable",
      "type": "function"
    },
    {
      "inputs": [],
      "name": "creationEnabled",
      "outputs": [
        {
          "internalType": "bool",
          "name": "",
          "type": "bool"
        }
      ],
      "stateMutability": "view",
      "type": "function"
    },
    {
      "inputs": [],
      "name": "feeWallet",
      "outputs": [
        {
          "internalType": "address",
          "name": "",
          "type": "address"
        }
      ],
      "stateMutability": "view",
      "type": "function"
    },
    {
      "inputs": [
        {
          "internalType": "uint40",
          "name": "id_",
          "type": "uint40"
        }
      ],
      "name": "getLpData",
      "outputs": [
        {
          "internalType": "bool",
          "name": "hasLpData",
          "type": "bool"
        },
        {
          "internalType": "uint40",
          "name": "id",
          "type": "uint40"
        },
        {
          "internalType": "address",
          "name": "token0",
          "type": "address"
        },
        {
          "internalType": "address",
          "name": "token1",
          "type": "address"
        },
        {
          "internalType": "uint256",
          "name": "balance0",
          "type": "uint256"
        },
        {
          "internalType": "uint256",
          "name": "balance1",
          "type": "uint256"
        },
        {
          "internalType": "uint256",
          "name": "price0",
          "type": "uint256"
        },
        {
          "internalType": "uint256",
          "name": "price1",
          "type": "uint256"
        }
      ],
      "stateMutability": "view",
      "type": "function"
    },
    {
      "inputs": [
        {
          "internalType": "uint40",
          "name": "id_",
          "type": "uint40"
        }
      ],
      "name": "getLpLockAddress",
      "outputs": [
        {
          "internalType": "address",
          "name": "",
          "type": "address"
        }
      ],
      "stateMutability": "view",
      "type": "function"
    },
    {
      "inputs": [
        {
          "internalType": "uint40",
          "name": "id_",
          "type": "uint40"
        }
      ],
      "name": "getLpLockData",
      "outputs": [
        {
          "internalType": "bool",
          "name": "isLpToken",
          "type": "bool"
        },
        {
          "internalType": "uint40",
          "name": "id",
          "type": "uint40"
        },
        {
          "internalType": "address",
          "name": "contractAddress",
          "type": "address"
        },
        {
          "internalType": "address",
          "name": "lockOwner",
          "type": "address"
        },
        {
          "internalType": "address",
          "name": "token",
          "type": "address"
        },
        {
          "internalType": "address",
          "name": "createdBy",
          "type": "address"
        },
        {
          "internalType": "uint40",
          "name": "createdAt",
          "type": "uint40"
        },
        {
          "internalType": "uint40",
          "name": "blockTime",
          "type": "uint40"
        },
        {
          "internalType": "uint40",
          "name": "unlockTime",
          "type": "uint40"
        },
        {
          "internalType": "uint256",
          "name": "balance",
          "type": "uint256"
        },
        {
          "internalType": "uint256",
          "name": "totalSupply",
          "type": "uint256"
        }
      ],
      "stateMutability": "view",
      "type": "function"
    },
    {
      "inputs": [
        {
          "internalType": "address",
          "name": "address_",
          "type": "address"
        }
      ],
      "name": "getLpLockersForAddress",
      "outputs": [
        {
          "internalType": "uint40[]",
          "name": "",
          "type": "uint40[]"
        }
      ],
      "stateMutability": "view",
      "type": "function"
    },
    {
      "inputs": [
        {
          "internalType": "uint40",
          "name": "id_",
          "type": "uint40"
        }
      ],
      "name": "getTokenLockAddress",
      "outputs": [
        {
          "internalType": "address",
          "name": "",
          "type": "address"
        }
      ],
      "stateMutability": "view",
      "type": "function"
    },
    {
      "inputs": [
        {
          "internalType": "uint40",
          "name": "id_",
          "type": "uint40"
        }
      ],
      "name": "getTokenLockData",
      "outputs": [
        {
          "internalType": "bool",
          "name": "isLpToken",
          "type": "bool"
        },
        {
          "internalType": "uint40",
          "name": "id",
          "type": "uint40"
        },
        {
          "internalType": "address",
          "name": "contractAddress",
          "type": "address"
        },
        {
          "internalType": "address",
          "name": "lockOwner",
          "type": "address"
        },
        {
          "internalType": "address",
          "name": "token",
          "type": "address"
        },
        {
          "internalType": "address",
          "name": "createdBy",
          "type": "address"
        },
        {
          "internalType": "uint40",
          "name": "createdAt",
          "type": "uint40"
        },
        {
          "internalType": "uint40",
          "name": "blockTime",
          "type": "uint40"
        },
        {
          "internalType": "uint40",
          "name": "unlockTime",
          "type": "uint40"
        },
        {
          "internalType": "uint256",
          "name": "balance",
          "type": "uint256"
        },
        {
          "internalType": "uint256",
          "name": "totalSupply",
          "type": "uint256"
        }
      ],
      "stateMutability": "view",
      "type": "function"
    },
    {
      "inputs": [
        {
          "internalType": "address",
          "name": "address_",
          "type": "address"
        }
      ],
      "name": "getTokenLockersForAddress",
      "outputs": [
        {
          "internalType": "uint40[]",
          "name": "",
          "type": "uint40[]"
        }
      ],
      "stateMutability": "view",
      "type": "function"
    },
    {
      "inputs": [],
      "name": "lpLockerCount",
      "outputs": [
        {
          "internalType": "uint40",
          "name": "",
          "type": "uint40"
        }
      ],
      "stateMutability": "view",
      "type": "function"
    },
    {
      "inputs": [
        {
          "internalType": "uint40",
          "name": "id_",
          "type": "uint40"
        },
        {
          "internalType": "address",
          "name": "newOwner_",
          "type": "address"
        },
        {
          "internalType": "address",
          "name": "previousOwner_",
          "type": "address"
        },
        {
          "internalType": "address",
          "name": "createdBy_",
          "type": "address"
        }
      ],
      "name": "notifyLpLockerOwnerChange",
      "outputs": [],
      "stateMutability": "nonpayable",
      "type": "function"
    },
    {
      "inputs": [
        {
          "internalType": "uint40",
          "name": "id_",
          "type": "uint40"
        },
        {
          "internalType": "address",
          "name": "newOwner_",
          "type": "address"
        },
        {
          "internalType": "address",
          "name": "previousOwner_",
          "type": "address"
        },
        {
          "internalType": "address",
          "name": "createdBy_",
          "type": "address"
        }
      ],
      "name": "notifyTokenLockerOwnerChange",
      "outputs": [],
      "stateMutability": "nonpayable",
      "type": "function"
    },
    {
      "inputs": [],
      "name": "owner",
      "outputs": [
        {
          "internalType": "address",
          "name": "",
          "type": "address"
        }
      ],
      "stateMutability": "view",
      "type": "function"
    },
    {
      "inputs": [
        {
          "internalType": "bool",
          "name": "value_",
          "type": "bool"
        }
      ],
      "name": "setCreationEnabled",
      "outputs": [],
      "stateMutability": "nonpayable",
      "type": "function"
    },
    {
      "inputs": [
        {
          "internalType": "address",
          "name": "_newWallet",
          "type": "address"
        }
      ],
      "name": "setFeeWallet",
      "outputs": [],
      "stateMutability": "nonpayable",
      "type": "function"
    },
    {
      "inputs": [
        {
          "internalType": "uint256",
          "name": "_amount",
          "type": "uint256"
        }
      ],
      "name": "setLpLockerFee",
      "outputs": [],
      "stateMutability": "nonpayable",
      "type": "function"
    },
    {
      "inputs": [
        {
          "internalType": "uint256",
          "name": "_amount",
          "type": "uint256"
        }
      ],
      "name": "setTokenLockerFee",
      "outputs": [],
      "stateMutability": "nonpayable",
      "type": "function"
    },
    {
      "inputs": [],
      "name": "tokenLockerCount",
      "outputs": [
        {
          "internalType": "uint40",
          "name": "",
          "type": "uint40"
        }
      ],
      "stateMutability": "view",
      "type": "function"
    },
    {
      "inputs": [
        {
          "internalType": "address",
          "name": "newOwner_",
          "type": "address"
        }
      ],
      "name": "transferOwnership",
      "outputs": [],
      "stateMutability": "nonpayable",
      "type": "function"
    },
    {
      "stateMutability": "payable",
      "type": "receive"
    }
  ],
  "bytecode": "0x60808060405234610083576000543360007f8be0079c531659141344cd1fd0a4f28419497f9722a3daafe3b4186f6b6457e08180a3662386f26fc1000060018190556002556001600160a81b0319163360ff60a01b19811691909117600160a01b17600055600380546001600160a01b0319169091179055612cd190816100898239f35b600080fdfe608060408181526004918236101562000024575b50505036156200002257600080fd5b005b600092833560e01c91826322df78d0146200166a5750816326f3ed2b14620016415781632d5691e1146200162057816336ed16e2146200152d5781635c127f6114620013ba5781636a5dab9f146200136557816383a1364a14620011d15781638da5cb5b14620011a757816390d49b9d1462001152578163924043a314620010cc5781639365f47414620010ab578163a28a1f711462001068578163a68171171462000f81578163ae4b77a91462000f4f578163ae5820f61462000f1d578163b492979a1462000ef4578163bcb4b29014620009f1578163c4630a671462000832578163cde7cced14620003e257508063e7957bec146200039f578063f25f4b561462000375578063f2fde38b14620002ef5763fbf2bc4e1462000149578062000013565b34620002eb5760209081600319360112620002e7576001600160a01b0362000170620016a8565b16835260078252808320918151928382825491828152019186528286205b816005880110620002925791620001f596620001ea949287945491848282106200027a575b8282106200025f575b82821062000244575b82821062000229575b8282106200020e575b5010620001f9575b509050038362001800565b519182918262001713565b0390f35b60c81c64ffffffffff168152018038620001df565b6001919464ffffffffff8560a01c16815201930184620001d7565b6001919464ffffffffff8560781c16815201930184620001ce565b6001919464ffffffffff8560501c16815201930184620001c5565b6001919464ffffffffff8560281c16815201930184620001bc565b6001919464ffffffffff8516815201930184620001b3565b91600160c0600692855464ffffffffff8082168352808260281c1689840152808260501c168a840152808260781c16606084015260a0918181841c16608085015260c81c16908201520193019601956200018e565b8280fd5b5080fd5b82346200037257602036600319011262000372576200030d620016a8565b8154906001600160a01b0380831691620003343384146200032e8162001a03565b62001a03565b1680926bffffffffffffffffffffffff60a01b161783557f8be0079c531659141344cd1fd0a4f28419497f9722a3daafe3b4186f6b6457e08380a380f35b80fd5b5034620002eb5781600319360112620002eb5760035490516001600160a01b039091168152602090f35b5034620002eb576020366003190112620002eb5760209164ffffffffff620003c66200168e565b168152600583528190205490516001600160a01b039091168152f35b919050620003f036620017c5565b916200040660ff879693965460a01c1662001b02565b6200041660015434101562001b4f565b8351630f24ca7d60e01b81526001600160a01b038281168483018190529660209591949192868160248173__$07fad53c1fbb3fdc76e34aaffbb15a0e12$__5af490811562000828578a91620007e7575b50620007a45788549464ffffffffff808760a81c169664ffffffffff60a81b620004918962001b8f565b60a81b169064ffffffffff60a81b1916178b55421694620004b3868662001ba6565b8951916110db8084019084821067ffffffffffffffff8311176200079157928493928f96959392620005199362001bc1863930815264ffffffffff808e1660208301523360408301526001600160a01b0390921660608201529116608082015260a00190565b039083f0928315620007875787835284895289832080549483166001600160a01b03199095168517905589516323b872dd60e01b8152338187019081526001600160a01b03861660208201526040810192909252908990829081900360600181868f5af180156200077d5762000741575b5033825260068852620005a0878a8420620019d5565b89825260068852620005b5878a8420620019d5565b82825260068852620005ca878a8420620019d5565b8160015434116000146200071357808080620005e9600154346200196d565b81811562000709575b3390f115620006fd57818080926003541660015490828215620006f3575bf115620006e9575b86516370a0823160e01b81529182015284816024818a5afa948515620006e9578895620006a7575b50509362000674620006a1927f58269fc59a52ebef4e03ffbec3023f281fb62e9178c38c86e0491baab768ba769662001ba6565b905164ffffffffff9384168152336020820152604081019490945291909116606083015281906080820190565b0390a280f35b908096929550813d8311620006e1575b620006c3818362001800565b81010312620006dd5793519262000674620006a162000640565b8680fd5b503d620006b7565b86513d8a823e3d90fd5b506108fc62000610565b508751903d90823e3d90fd5b506108fc620005f2565b808092600354168190341562000736575b3491f1620006185786513d8a823e3d90fd5b6108fc915062000724565b8881813d831162000775575b62000759818362001800565b81010312620002e7576200076d9062001839565b50386200058a565b503d6200074d565b8a513d85823e3d90fd5b89513d84823e3d90fd5b634e487b7160e01b8f526041885260248ffd5b865162461bcd60e51b8152808301879052601a60248201527f54686973206973206e6f7420746f6b656e20616464726573732e0000000000006044820152606490fd5b90508681813d831162000820575b62000801818362001800565b810103126200081c57620008159062001839565b3862000467565b8980fd5b503d620007f5565b88513d8c823e3d90fd5b905034620002e7576200084536620016bf565b9491909364ffffffffff95878786169182825260209380855260018060a01b0380809a6200087a828b882054163314620018cf565b169216820362000907575b505096885b8785168a5260068452858a208054821015620008f85782620008ae83869362001934565b90549060031b1c1614620008c5576001016200088a565b50505090919293945060015b15620008db578580f35b620008ef94600692168652528320620019d5565b38808080808580f35b505050509091929394620008d1565b915b818b52896006938487528c898120878154861015620009e3576200092f86869362001934565b959054600396871b1c1603620009d15750849052848752888d208054600019810192908311620009be575092898d8f94620009736200098795620009a49862001934565b9054911b1c1693868152878a522062001934565b90919064ffffffffff8084549260031b9316831b921b1916179055565b89528252620009b584892062001991565b87388062000885565b634e487b7160e01b8f526011905260248efd5b92509450916001019193505062000909565b5050505050505050620009b5565b9050620009fe36620017c5565b9193909262000a1460ff875460a01c1662001b02565b62000a2460025434101562001b4f565b8151630f24ca7d60e01b81526001600160a01b038681168383018190529096909460209392848160248173__$07fad53c1fbb3fdc76e34aaffbb15a0e12$__5af490811562000d3b578a9162000eb7575b501562000e745788549264ffffffffff808560d01c169464ffffffffff60d01b62000aa08762001b8f565b60d01b169064ffffffffff60d01b1916178b5542169262000ac2848462001ba6565b8751916110db8084019084821067ffffffffffffffff83111762000e61579184939162000b239362001bc1863930815264ffffffffff808b1660208301523360408301526001600160a01b0390921660608201529116608082015260a00190565b03908bf0978a891562000e5657858152600587528790208054998b166001600160a01b0319909a168a17905586516323b872dd60e01b8152338382019081526001600160a01b038b16602082015260408101929092529086908290819003606001818e8c5af1801562000e4c5762000e0c575b50338a526007855262000bac84878c20620019d5565b868a526007855262000bc184878c20620019d5565b878a526007855262000bd684878c20620019d5565b838a526005855288868b205416978a8751809a63af74e62960e01b825281856101009384935afa9a8b1562000787578291839c62000dc8575b50501562000d87578a808d92169a8b83526007895262000c32888b8520620019d5565b169a8b82526007885262000c49878a8420620019d5565b81600254341160001462000d595780808062000c68600254346200196d565b81811562000d4f575b3390f115620006fd5781808092600354166002549082821562000d45575bf11562000d3b575b86516370a0823160e01b81529182015284816024818a5afa94851562000d3b578a9562000cf9575b5050936200067462000cf3927fc4cb0257c18d3896161128542b10611e216dd4135ac0e29969af36a6dec1fa739662001ba6565b0390a480f35b908096929550813d831162000d33575b62000d15818362001800565b8101031262000d2f579351926200067462000cf362000cbf565b8880fd5b503d62000d09565b86513d8c823e3d90fd5b506108fc62000c8f565b506108fc62000c71565b808092600354168190341562000d7c575b3491f162000c975786513d8c823e3d90fd5b6108fc915062000d6a565b60648388808b519262461bcd60e51b845283015260248201527f496e76616c6964204c697175696469747920546f6b656e20416464726573732e6044820152fd5b9150915062000df1929a50803d1062000e04575b62000de8818362001800565b8101906200186f565b5050505091509991999099388062000c0f565b503d62000ddc565b8581813d831162000e44575b62000e24818362001800565b8101031262000e405762000e389062001839565b503862000b96565b8a80fd5b503d62000e18565b87513d8d823e3d90fd5b8751903d90823e3d90fd5b634e487b7160e01b8f526041865260248ffd5b845162461bcd60e51b8152808401859052601760248201527f54686973206973206e6f74206c7020616464726573732e0000000000000000006044820152606490fd5b90508481813d831162000eec575b62000ed1818362001800565b810103126200081c5762000ee59062001839565b3862000a75565b503d62000ec5565b505034620002eb5781600319360112620002eb5764ffffffffff6020925460d01c169051908152f35b839034620002eb576020366003190112620002eb5762000f4860018060a01b03835416331462001a03565b3560025580f35b839034620002eb576020366003190112620002eb5762000f7a60018060a01b03835416331462001a03565b3560015580f35b905034620002e7576020366003190112620002e75764ffffffffff62000fa66200168e565b1683526020819052818320548251634c02bf0b60e01b815261016094909290918591849182906001600160a01b03165afa9081156200105d57809281948283848591869387958897899a62001008575b50519b508b9a620001f59a8c62001758565b99509a5050505050505050506200103e915083620001f594903d1062001055575b62001035818362001800565b81019062001a61565b989b8c9b9198929793969495949392919062000ff6565b503d62001029565b8351903d90823e3d90fd5b905034620002e7576020366003190112620002e7579160209264ffffffffff620010916200168e565b16825283528190205490516001600160a01b039091168152f35b505034620002eb5781600319360112620002eb576020906002549051908152f35b905034620002e7576020366003190112620002e75764ffffffffff620010f16200168e565b1683526005602052818320548251634c02bf0b60e01b815261016094909290918591849182906001600160a01b03165afa9081156200105d57809281948283848591869387958897899a620010085750519b508b9a620001f59a8c62001758565b833462000372576020366003190112620003725762001170620016a8565b81546001600160a01b0391906200118b908316331462001a03565b166bffffffffffffffffffffffff60a01b600354161760035580f35b505034620002eb5781600319360112620002eb57905490516001600160a01b039091168152602090f35b828434620003725760209182600319360112620002eb576001600160a01b03620011fa620016a8565b16825260068084528183209082518094868454928381520193815286812090925b826005850110620013105750928592620001f59792620001ea95549184828210620012f8575b828210620012dd575b828210620012c2575b828210620012a7575b8282106200128c575b50106200127757509050038362001800565b60c81c64ffffffffff168152018087620001df565b6001919464ffffffffff8560a01c1681520193018462001265565b6001919464ffffffffff8560781c168152019301846200125c565b6001919464ffffffffff8560501c1681520193018462001253565b6001919464ffffffffff8560281c168152019301846200124a565b6001919464ffffffffff851681520193018462001241565b600160c083968396945464ffffffffff8082168352808260281c168d840152808260501c168b840152808260781c16606084015260a0918181841c16608085015260c81c16908201520195019101926200121b565b839034620002eb576020366003190112620002eb5735801515809103620002eb578154906200139f6001600160a01b038316331462001a03565b60ff60a01b1990911660a09190911b60ff60a01b1617815580f35b905034620002e757620013cd36620016bf565b9491909364ffffffffff9587878616918282526020936005855260018060a01b0380809a62001403828b882054163314620018cf565b169216820362001487575b505096885b8785168a5260078452858a2080548210156200147857826200143783869362001934565b90549060031b1c16146200144e5760010162001413565b50505090919293945060015b1562001464578580f35b620008ef94600792168652528320620019d5565b5050505090919293946200145a565b915b818b52896007938487528c8981208781548610156200151f57620014af86869362001934565b959054600396871b1c16036200150d5750849052848752888d208054600019810192908311620009be575092898d8f94620009736200098795620014f39862001934565b895282526200150484892062001991565b8738806200140e565b92509450916001019193505062001489565b505050505050505062001504565b83915034620002eb576020366003190112620002eb5764ffffffffff9182620015556200168e565b168152600560205283812054845163af74e62960e01b8152610100956001600160a01b0394919290918791849190829088165afa93841562001616578395849285869287958897899a620015d4575b5083519a15158b521660208a0152831690880152166060860152608085015260a084015260c083015260e0820152f35b95995050955050965050849350620015fc9150863d881162000e045762000de8818362001800565b969a969990989197929691959394919391929190620015a4565b81513d85823e3d90fd5b505034620002eb5781600319360112620002eb576020906001549051908152f35b505034620002eb5781600319360112620002eb5764ffffffffff6020925460a81c169051908152f35b849034620002eb5781600319360112620002eb5760ff6020925460a01c1615158152f35b6004359064ffffffffff82168203620016a357565b600080fd5b600435906001600160a01b0382168203620016a357565b6080906003190112620016a35760043564ffffffffff81168103620016a357906001600160a01b036024358181168103620016a357916044358281168103620016a357916064359081168103620016a35790565b602090602060408183019282815285518094520193019160005b8281106200173c575050505090565b835164ffffffffff16855293810193928101926001016200172d565b901515815264ffffffffff91821660208201526001600160a01b0392831660408201529282166060840152928116608083015290921660a083015291821660c082015291811660e08301529091166101008201526101208101919091526101408101919091526101600190565b6060906003190112620016a3576004356001600160a01b0381168103620016a357906024359060443564ffffffffff81168103620016a35790565b90601f8019910116810190811067ffffffffffffffff8211176200182357604052565b634e487b7160e01b600052604160045260246000fd5b51908115158203620016a357565b519064ffffffffff82168203620016a357565b51906001600160a01b0382168203620016a357565b919082610100910312620016a357620018888262001839565b91620018976020820162001847565b91620018a6604083016200185a565b91620018b5606082016200185a565b9160808201519160a08101519160e060c083015192015190565b15620018d757565b60405162461bcd60e51b815260206004820152602f60248201527f4f6e6c7920746865206c6f636b657220636f6e74726163742063616e2063616c60448201526e36103a3434b990333ab731ba34b7b760891b6064820152608490fd5b919091805483101562001957576000526005600660206000208185040193060290565b634e487b7160e01b600052603260045260246000fd5b919082039182116200197b57565b634e487b7160e01b600052601160045260246000fd5b80548015620019bf576000190190620019ab828262001934565b64ffffffffff82549160031b1b1916905555565b634e487b7160e01b600052603160045260246000fd5b90815491680100000000000000008310156200182357826200098791600162001a019501815562001934565b565b1562001a0b57565b60405162461bcd60e51b815260206004820152602860248201527f4f6e6c7920746865206f776e65722063616e2065786563757465207468697320604482015267333ab731ba34b7b760c11b6064820152608490fd5b9081610160910312620016a35762001a798162001839565b9162001a886020830162001847565b9162001a97604082016200185a565b9162001aa6606083016200185a565b9162001ab5608082016200185a565b9162001ac460a083016200185a565b9162001ad360c0820162001847565b9162001ae260e0830162001847565b9162001af2610100820162001847565b9161014061012083015192015190565b1562001b0a57565b60405162461bcd60e51b815260206004820152601b60248201527f4c6f636b6572206372656174696f6e2069732064697361626c656400000000006044820152606490fd5b1562001b5757565b60405162461bcd60e51b815260206004820152601060248201526f496e73756666696369656e742046656560801b6044820152606490fd5b64ffffffffff8091169081146200197b5760010190565b91909164ffffffffff808094169116019182116200197b5756fe6080604090808252346200023f5760a081620010db803803809162000025828562000244565b8339810103126200023f576200003b816200027e565b906020916200004c83830162000293565b916200005a8582016200027e565b906200007760806200006f606084016200027e565b920162000293565b9160018060a01b038091169160018060a01b0319946000968487895416178855895185897f8be0079c531659141344cd1fd0a4f28419497f9722a3daafe3b4186f6b6457e08180a364ffffffffff871615620001f35750836001549164ffffffffff60a81b9060a81b169216906bffffffffffff0000000000ff60a01b16171760015516809360025416176002556003549164ffffffffff60c81b9060c81b169161ffff60f01b161764ffffffffff60a01b4260a01b161717600355835190630f24ca7d60e01b82526004820152828160248173__$07fad53c1fbb3fdc76e34aaffbb15a0e12$__5af4928315620001e9578293620001a0575b50506001805460ff60a01b191692151560a01b60ff60a01b16929092179091555051610e349081620002a78239f35b9080929350813d8311620001e1575b620001bb818362000244565b81010312620001dd5751908115158203620001da575038808062000171565b80fd5b5080fd5b503d620001af565b84513d84823e3d90fd5b62461bcd60e51b8152600481018a9052602160248201527f556e6c6f636b2074696d65206d75737420626520696e207468652066757475726044820152606560f81b6064820152608490fd5b600080fd5b601f909101601f19168101906001600160401b038211908210176200026857604052565b634e487b7160e01b600052604160045260246000fd5b51906001600160a01b03821682036200023f57565b519064ffffffffff821682036200023f5756fe60406080815260049081361015610020575b5050361561001e57600080fd5b005b600091823560e01c80633ccfd60b14610a555780634c02bf0b14610954578063894760691461079e5780638da5cb5b14610776578063a0ef91df146106f4578063af74e629146104cd578063b05fb26f146104a2578063d88e7f4e146102475763f2fde38b146100905750610011565b829134610243576020366003190112610243578135916001600160a01b03808416919082850361023f5785549280828516946100df3387146100d181610bbb565b6100da81610bbb565b610bbb565b6001600160a01b031916178755845190847f8be0079c531659141344cd1fd0a4f28419497f9722a3daafe3b4186f6b6457e08980a360015460ff8160a01c166000146101bf575050600154928184169160035416823b156101bb578551635c127f6160e01b815260a89590951c64ffffffffff169385019384526001600160a01b03968716602085015290861660408401529490941660608201529092849184919082908490829060800103925af19081156101b2575061019f57505080f35b6101a890610c96565b6101af5780f35b80fd5b513d84823e3d90fd5b8780fd5b60035491979596918316949281169390843b1561023b5763c4630a6760e01b895260a81c64ffffffffff169088019081526001600160a01b03918216602082015291811660408301529092166060830152849182908490829060800103925af19081156101b2575061022f575080f35b61023890610c96565b80f35b8680fd5b8580fd5b5050fd5b503461049e578160031936011261049e57803591602435918464ffffffffff948585169586860361049e5782546001600160a01b03969061028b9088163314610bbb565b60035461029e60ff8260f01c1615610c18565b600160f01b9160ff60f01b1999838b84161780600355816103a7575b505050505050806102d2575b50846003541660035580f35b60209060646102df610d85565b966002541691865194859384926323b872dd60e01b8452338985015230602485015260448401525af1801561039d5761036e575b5061031c610d85565b92830392831161035b57507f2a89b2e3d580398d6dc2db5e0f336b52602bbaa51afa9bb5cdf59239cf0d2bea9160209151908152a138808084816102c6565b634e487b7160e01b855260119052602484fd5b61038f9060203d602011610396575b6103878183610cc0565b810190610ce2565b5038610313565b503d61037d565b83513d88823e3d90fd5b8596975060c89591929394951c168110159081610491575b50156104285765ffffffffffff60c81b1990911660c891821b64ffffffffff60c81b161790911760038190558551911c90911681528691907fd316ae9629b69e6caec00227e7056a9d6b297beb56bf61e651212156c716567e90602090a13880808080806102ba565b865162461bcd60e51b8152602081880152603f60248201527f4e657720756e6c6f636b2074696d65206d75737420626520612066757475726560448201527f2074696d65206265796f6e64207468652070726576696f75732076616c7565006064820152608490fd5b90508442161115386103bf565b8280fd5b5050346104c957816003193601126104c95760209060ff60015460a01c1690519015158152f35b5080fd5b50903461049e578260031936011261049e57829083849085908692879488966001549860ff8a60a01c161560001461054857505064ffffffffff61010099985b82519915158a5260a81c1660208901526001600160a01b0392831690880152166060860152608085015260a084015260c083015260e0820152f35b90989960018060a01b0360025416835190632590dc9d60e01b82528382015260c08160248173__$07fad53c1fbb3fdc76e34aaffbb15a0e12$__5af482918384908591848794889661068d575b506106655750505050505060018160033d11610656575b6308c379a01461063f575b6105cd575b505064ffffffffff6101009961050d565b909998503d1561062e573d67ffffffffffffffff811161061b5782516101009b5064ffffffffff929161060a601f8201601f191660200183610cc0565b81528160203d92013e5b98996105bc565b634e487b7160e01b825260418b52602482fd5b610100995064ffffffffff90610614565b610647610d13565b156105b75750985088806105b7565b508282803e815160e01c6105ac565b985098509850985098509950505061010098965064ffffffffff60019893929495969761050d565b965094505050505060c0823d60c0116106ec575b816106ae60c09383610cc0565b8101031261049e576106bf82610cff565b6106cb60208401610cff565b9286810151606082015160a060808401519301519395919092939438610595565b3d91506106a1565b5050346104c957816003193601126104c95781546001600160a01b03169061071d338314610bbb565b828080806003549561073560ff8860f01c1615610c18565b60ff60f01b19968716600160f01b17600355479082821561076d575bf11561076257506003541660035580f35b51913d9150823e3d90fd5b506108fc610751565b5050346104c957816003193601126104c957905490516001600160a01b039091168152602090f35b50903461049e5760209081600319360112610950576001600160a01b039280358481169081900361023f57848654166107d8338214610bbb565b600354956107ec60ff8860f01c1615610c18565b60ff60f01b19968716600160f01b176003556002541682146108f15783516370a0823160e01b81523081850152879493909291908684602481865afa9384156108e75790879493929187946108b2575b50855163a9059cbb60e01b81526001600160a01b03909216908201908152602081019390935294859283919082906040015b03925af19081156108a9575061088b575b50506003541660035580f35b816108a192903d10610396576103878183610cc0565b50388061087f565b513d86823e3d90fd5b8581969295503d83116108e0575b6108ca8183610cc0565b8101031261023f5792518693909261086e61083c565b503d6108c0565b85513d88823e3d90fd5b835162461bcd60e51b8152808401869052603360248201527f557365202777697468647261772720746f2077697468647261772074686520706044820152723934b6b0b93c903637b1b5b2b2103a37b5b2b760691b6064820152608490fd5b8380fd5b503461049e578260031936011261049e576001549164ffffffffff60018060a01b03808654169080600254166003549261098c610d85565b956020815180996318160ddd60e01b825281865afa978815610a4b578a98610a0e575b5061016099508581519960ff8160a01c1615158b5260a81c1660208a0152309089015260608801526080870152811660a0860152818160a01c1660c086015281421660e086015260c81c16610100840152610120830152610140820152f35b9097506020813d602011610a43575b81610a2a60209383610cc0565b81010312610a3f5761016099505196386109af565b8980fd5b3d9150610a1d565b81513d8c823e3d90fd5b50903461049e578260031936011261049e5782546001600160a01b0392908316610a80338214610bbb565b60035493610a9460ff8660f01c1615610c18565b60ff60f01b19948516600160f01b17600381905560c81c64ffffffffff9081164290911610610b6d5791602091610b059493600254169087610ad4610d85565b865163a9059cbb60e01b81526001600160a01b03909316948301948552602085015290958693849291839160400190565b03925af1908115610b645750610b45575b507f2610969932116214bd675dc19941eeba897ba78afe8423eaaa3046445eea28cd8280a16003541660035580f35b610b5d9060203d602011610396576103878183610cc0565b5038610b16565b513d85823e3d90fd5b835162461bcd60e51b8152602081850152602260248201527f5761697420756e74696c20756e6c6f636b54696d6520746f207769746864726160448201526103b960f51b6064820152608490fd5b15610bc257565b60405162461bcd60e51b815260206004820152602860248201527f4f6e6c7920746865206f776e65722063616e2065786563757465207468697320604482015267333ab731ba34b7b760c11b6064820152608490fd5b15610c1f57565b60a460405162461bcd60e51b815260206004820152604460248201527f5472616e73666572696e67206973206c6f636b65642e205761697420666f722060448201527f7468652070726576696f7573207472616e73616374696f6e20746f20636f6d706064820152636c65746560e01b6084820152fd5b67ffffffffffffffff8111610caa57604052565b634e487b7160e01b600052604160045260246000fd5b90601f8019910116810190811067ffffffffffffffff821117610caa57604052565b90816020910312610cfa57518015158103610cfa5790565b600080fd5b51906001600160a01b0382168203610cfa57565b600060443d10610d7157604051600319913d83016004833e815167ffffffffffffffff918282113d602484011117610d7457818401948551938411610d7c573d85010160208487010111610d745750610d7192910160200190610cc0565b90565b949350505050565b50949350505050565b6002546040516370a0823160e01b815230600482015290602090829060249082906001600160a01b03165afa908115610df257600091610dc3575090565b90506020813d602011610dea575b81610dde60209383610cc0565b81010312610cfa575190565b3d9150610dd1565b6040513d6000823e3d90fdfea2646970667358221220b2829b023369f84f8e8bad328d085859cecaf9278f49da73596e5ce57532607a64736f6c63430008180033a264697066735822122040e090039872ad4d523c9112a46ee6774cdb0eb429a1334f81dc81f82e54e70564736f6c63430008180033",
  "linkReferences": {
    "contracts/locker/Util.sol": {
      "Util": [
        {
          "length": 20,
          "start": 1227
        },
        {
          "length": 20,
          "start": 2777
        },
        {
          "length": 20,
          "start": 7574
        },
        {
          "length": 20,
          "start": 9312
        }
      ]
    }
  },
  "deployedLinkReferences": {
    "contracts/locker/Util.sol": {
      "Util": [
        {
          "length": 20,
          "start": 1090
        },
        {
          "length": 20,
          "start": 2640
        },
        {
          "length": 20,
          "start": 7437
        },
        {
          "length": 20,
          "start": 9175
        }
      ]
    }
  }
}